{
  "_format": "hh-sol-artifact-1",
  "contractName": "CryptoSwap",
  "sourceName": "contracts/CryptoSwap.sol",
  "abi": [
    {
      "inputs": [],
      "stateMutability": "nonpayable",
      "type": "constructor"
    },
    {
      "anonymous": false,
      "inputs": [
        {
          "indexed": true,
          "internalType": "string",
          "name": "token1",
          "type": "string"
        },
        {
          "indexed": false,
          "internalType": "string",
          "name": "token2",
          "type": "string"
        },
        {
          "indexed": false,
          "internalType": "address",
          "name": "poolAddress",
          "type": "address"
        },
        {
          "indexed": false,
          "internalType": "uint256",
          "name": "initialAmountToken1",
          "type": "uint256"
        },
        {
          "indexed": false,
          "internalType": "uint256",
          "name": "initialAmountToken2",
          "type": "uint256"
        }
      ],
      "name": "LiquidityPoolCreated",
      "type": "event"
    },
    {
      "inputs": [
        {
          "internalType": "string",
          "name": "CoinA",
          "type": "string"
        },
        {
          "internalType": "string",
          "name": "CoinB",
          "type": "string"
        },
        {
          "internalType": "uint256",
          "name": "amount1",
          "type": "uint256"
        },
        {
          "internalType": "uint256",
          "name": "amount2",
          "type": "uint256"
        }
      ],
      "name": "addLiquidity",
      "outputs": [],
      "stateMutability": "nonpayable",
      "type": "function"
    },
    {
      "inputs": [],
      "name": "getAllowance",
      "outputs": [
        {
          "internalType": "uint256",
          "name": "allowance1",
          "type": "uint256"
        },
        {
          "internalType": "uint256",
          "name": "allowance2",
          "type": "uint256"
        },
        {
          "internalType": "uint256",
          "name": "allowance3",
          "type": "uint256"
        }
      ],
      "stateMutability": "view",
      "type": "function"
    },
    {
      "inputs": [
        {
          "internalType": "string",
          "name": "CoinA",
          "type": "string"
        },
        {
          "internalType": "string",
          "name": "CoinB",
          "type": "string"
        },
        {
          "internalType": "uint256",
          "name": "amountOut",
          "type": "uint256"
        }
      ],
      "name": "getAmountIn",
      "outputs": [
        {
          "internalType": "uint256",
          "name": "",
          "type": "uint256"
        }
      ],
      "stateMutability": "view",
      "type": "function"
    },
    {
      "inputs": [
        {
          "internalType": "string",
          "name": "CoinA",
          "type": "string"
        },
        {
          "internalType": "string",
          "name": "CoinB",
          "type": "string"
        },
        {
          "internalType": "uint256",
          "name": "amountIn",
          "type": "uint256"
        }
      ],
      "name": "getAmountOut",
      "outputs": [
        {
          "internalType": "uint256",
          "name": "",
          "type": "uint256"
        }
      ],
      "stateMutability": "view",
      "type": "function"
    },
    {
      "inputs": [
        {
          "internalType": "string",
          "name": "tokenName",
          "type": "string"
        },
        {
          "internalType": "address",
          "name": "_address",
          "type": "address"
        }
      ],
      "name": "getBalance",
      "outputs": [
        {
          "internalType": "uint256",
          "name": "",
          "type": "uint256"
        }
      ],
      "stateMutability": "view",
      "type": "function"
    },
    {
      "inputs": [],
      "name": "getEthBalance",
      "outputs": [
        {
          "internalType": "uint256",
          "name": "",
          "type": "uint256"
        }
      ],
      "stateMutability": "view",
      "type": "function"
    },
    {
      "inputs": [
        {
          "internalType": "string",
          "name": "CoinA",
          "type": "string"
        },
        {
          "internalType": "string",
          "name": "CoinB",
          "type": "string"
        }
      ],
      "name": "getLiquidityPool",
      "outputs": [
        {
          "internalType": "address",
          "name": "",
          "type": "address"
        }
      ],
      "stateMutability": "view",
      "type": "function"
    },
    {
      "inputs": [
        {
          "internalType": "string",
          "name": "tokenName",
          "type": "string"
        }
      ],
      "name": "getName",
      "outputs": [
        {
          "internalType": "string",
          "name": "",
          "type": "string"
        }
      ],
      "stateMutability": "view",
      "type": "function"
    },
    {
      "inputs": [
        {
          "internalType": "string",
          "name": "CoinA",
          "type": "string"
        },
        {
          "internalType": "string",
          "name": "CoinB",
          "type": "string"
        }
      ],
      "name": "getReserves",
      "outputs": [
        {
          "internalType": "uint256",
          "name": "reserve1",
          "type": "uint256"
        },
        {
          "internalType": "uint256",
          "name": "reserve2",
          "type": "uint256"
        }
      ],
      "stateMutability": "view",
      "type": "function"
    },
    {
      "inputs": [
        {
          "internalType": "string",
          "name": "tokenName",
          "type": "string"
        }
      ],
      "name": "getTokenAddress",
      "outputs": [
        {
          "internalType": "address",
          "name": "",
          "type": "address"
        }
      ],
      "stateMutability": "view",
      "type": "function"
    },
    {
      "inputs": [
        {
          "internalType": "string",
          "name": "tokenName",
          "type": "string"
        }
      ],
      "name": "getTotalSupply",
      "outputs": [
        {
          "internalType": "uint256",
          "name": "",
          "type": "uint256"
        }
      ],
      "stateMutability": "view",
      "type": "function"
    },
    {
      "inputs": [
        {
          "internalType": "string",
          "name": "",
          "type": "string"
        },
        {
          "internalType": "string",
          "name": "",
          "type": "string"
        }
      ],
      "name": "liquidityPools",
      "outputs": [
        {
          "internalType": "address",
          "name": "",
          "type": "address"
        }
      ],
      "stateMutability": "view",
      "type": "function"
    },
    {
      "inputs": [
        {
          "internalType": "string",
          "name": "CoinA",
          "type": "string"
        },
        {
          "internalType": "string",
          "name": "CoinB",
          "type": "string"
        },
        {
          "internalType": "uint256",
          "name": "liquidity",
          "type": "uint256"
        }
      ],
      "name": "removeLiquidity",
      "outputs": [],
      "stateMutability": "nonpayable",
      "type": "function"
    },
    {
      "inputs": [
        {
          "internalType": "string",
          "name": "tokenName",
          "type": "string"
        }
      ],
      "name": "swapEthToToken",
      "outputs": [
        {
          "internalType": "uint256",
          "name": "",
          "type": "uint256"
        }
      ],
      "stateMutability": "payable",
      "type": "function"
    },
    {
      "inputs": [
        {
          "internalType": "string",
          "name": "tokenName",
          "type": "string"
        },
        {
          "internalType": "uint256",
          "name": "_amount",
          "type": "uint256"
        }
      ],
      "name": "swapTokenToEth",
      "outputs": [
        {
          "internalType": "uint256",
          "name": "",
          "type": "uint256"
        }
      ],
      "stateMutability": "nonpayable",
      "type": "function"
    },
    {
      "inputs": [
        {
          "internalType": "string",
          "name": "CoinA",
          "type": "string"
        },
        {
          "internalType": "string",
          "name": "CoinB",
          "type": "string"
        },
        {
          "internalType": "uint256",
          "name": "amountIn",
          "type": "uint256"
        }
      ],
      "name": "swapTokens",
      "outputs": [],
      "stateMutability": "nonpayable",
      "type": "function"
    },
    {
      "inputs": [
        {
          "internalType": "string",
          "name": "",
          "type": "string"
        }
      ],
      "name": "tokenInstanceMap",
      "outputs": [
        {
          "internalType": "contract ERC20",
          "name": "",
          "type": "address"
        }
      ],
      "stateMutability": "view",
      "type": "function"
    }
  ],
  "bytecode": "0x6080604052655af3107a40006002553480156200001b57600080fd5b506040516200002a90620004a9565b620000359062000526565b604051809103906000f08015801562000052573d6000803e3d6000fd5b50600160405162000063906200058f565b908152602001604051809103902060006101000a81548173ffffffffffffffffffffffffffffffffffffffff021916908373ffffffffffffffffffffffffffffffffffffffff160217905550604051620000bd90620004a9565b620000c890620005f6565b604051809103906000f080158015620000e5573d6000803e3d6000fd5b506001604051620000f69062000654565b908152602001604051809103902060006101000a81548173ffffffffffffffffffffffffffffffffffffffff021916908373ffffffffffffffffffffffffffffffffffffffff1602179055506040516200015090620004a9565b6200015b90620006bb565b604051809103906000f08015801562000178573d6000803e3d6000fd5b506001604051620001899062000719565b908152602001604051809103902060006101000a81548173ffffffffffffffffffffffffffffffffffffffff021916908373ffffffffffffffffffffffffffffffffffffffff160217905550620002576040518060400160405280600581526020017f436f696e410000000000000000000000000000000000000000000000000000008152506040518060400160405280600581526020017f436f696e420000000000000000000000000000000000000000000000000000008152506103e8611f406200036160201b60201c565b620002d96040518060400160405280600581526020017f436f696e420000000000000000000000000000000000000000000000000000008152506040518060400160405280600581526020017f436f696e430000000000000000000000000000000000000000000000000000008152506107d06113886200036160201b60201c565b6200035b6040518060400160405280600581526020017f436f696e410000000000000000000000000000000000000000000000000000008152506040518060400160405280600581526020017f436f696e43000000000000000000000000000000000000000000000000000000815250611388612af86200036160201b60201c565b62000992565b60008484670de0b6b3a7640000856200037b919062000769565b670de0b6b3a76400008562000391919062000769565b6040516200039f90620004b7565b620003ae94939291906200084e565b604051809103906000f080158015620003cb573d6000803e3d6000fd5b50905080600086604051620003e19190620008e0565b908152602001604051809103902085604051620003ff9190620008e0565b908152602001604051809103902060006101000a81548173ffffffffffffffffffffffffffffffffffffffff021916908373ffffffffffffffffffffffffffffffffffffffff160217905550846040516200045b9190620008e0565b60405180910390207fb6a2b5f533c7290ee31c92382be3961b239f04a6ee1ccde853485be971409dd1858386866040516200049a94939291906200093e565b60405180910390a25050505050565b611a9e806200374583390190565b6113ae80620051e383390190565b600082825260208201905092915050565b7f436f696e41000000000000000000000000000000000000000000000000000000600082015250565b60006200050e600583620004c5565b91506200051b82620004d6565b602082019050919050565b600060408201905081810360008301526200054181620004ff565b905081810360208301526200055681620004ff565b9050919050565b600081905092915050565b6000620005776005836200055d565b91506200058482620004d6565b600582019050919050565b60006200059c8262000568565b9150819050919050565b7f436f696e42000000000000000000000000000000000000000000000000000000600082015250565b6000620005de600583620004c5565b9150620005eb82620005a6565b602082019050919050565b600060408201905081810360008301526200061181620005cf565b905081810360208301526200062681620005cf565b9050919050565b60006200063c6005836200055d565b91506200064982620005a6565b600582019050919050565b600062000661826200062d565b9150819050919050565b7f436f696e43000000000000000000000000000000000000000000000000000000600082015250565b6000620006a3600583620004c5565b9150620006b0826200066b565b602082019050919050565b60006040820190508181036000830152620006d68162000694565b90508181036020830152620006eb8162000694565b9050919050565b6000620007016005836200055d565b91506200070e826200066b565b600582019050919050565b60006200072682620006f2565b9150819050919050565b6000819050919050565b7f4e487b7100000000000000000000000000000000000000000000000000000000600052601160045260246000fd5b6000620007768262000730565b9150620007838362000730565b9250828202620007938162000730565b91508282048414831517620007ad57620007ac6200073a565b5b5092915050565b600081519050919050565b60005b83811015620007df578082015181840152602081019050620007c2565b60008484015250505050565b6000601f19601f8301169050919050565b60006200080982620007b4565b620008158185620004c5565b935062000827818560208601620007bf565b6200083281620007eb565b840191505092915050565b620008488162000730565b82525050565b600060808201905081810360008301526200086a8187620007fc565b90508181036020830152620008808186620007fc565b90506200089160408301856200083d565b620008a060608301846200083d565b95945050505050565b6000620008b682620007b4565b620008c281856200055d565b9350620008d4818560208601620007bf565b80840191505092915050565b6000620008ee8284620008a9565b915081905092915050565b600073ffffffffffffffffffffffffffffffffffffffff82169050919050565b60006200092682620008f9565b9050919050565b620009388162000919565b82525050565b600060808201905081810360008301526200095a8187620007fc565b90506200096b60208301866200092d565b6200097a60408301856200083d565b6200098960608301846200083d565b95945050505050565b612da380620009a26000396000f3fe6080604052600436106100fe5760003560e01c8063973e9b8b11610095578063c45010ed11610064578063c45010ed14610374578063d8e96486146103b1578063db6f63ee146103ef578063e4641b741461042c578063efeaaeea14610469576100fe565b8063973e9b8b146102a4578063a8c9e831146102d1578063a93325ed146102fa578063c409123614610337576100fe565b806363fcf7c5116100d157806363fcf7c5146101cf5780636932cf81146101ff57806370ed0ada1461023c57806389f4b31714610267576100fe565b8063105df746146101035780634bee093b1461014057806352bc0d86146101695780635463109e14610192575b600080fd5b34801561010f57600080fd5b5061012a60048036038101906101259190611eb0565b6104a6565b6040516101379190611f69565b60405180910390f35b34801561014c57600080fd5b5061016760048036038101906101629190611fba565b61050a565b005b34801561017557600080fd5b50610190600480360381019061018b9190612045565b610dc1565b005b34801561019e57600080fd5b506101b960048036038101906101b491906120e4565b610f55565b6040516101c6919061213c565b60405180910390f35b6101e960048036038101906101e491906120e4565b61100b565b6040516101f6919061213c565b60405180910390f35b34801561020b57600080fd5b50610226600480360381019061022191906120e4565b611105565b60405161023391906121d6565b60405180910390f35b34801561024857600080fd5b506102516111c0565b60405161025e919061213c565b60405180910390f35b34801561027357600080fd5b5061028e60048036038101906102899190612224565b6111c8565b60405161029b919061213c565b60405180910390f35b3480156102b057600080fd5b506102b961128a565b6040516102c893929190612280565b60405180910390f35b3480156102dd57600080fd5b506102f860048036038101906102f39190611fba565b6114c2565b005b34801561030657600080fd5b50610321600480360381019061031c91906120e4565b611647565b60405161032e9190612316565b60405180910390f35b34801561034357600080fd5b5061035e600480360381019061035991906120e4565b611690565b60405161036b9190611f69565b60405180910390f35b34801561038057600080fd5b5061039b60048036038101906103969190611fba565b6116d8565b6040516103a8919061213c565b60405180910390f35b3480156103bd57600080fd5b506103d860048036038101906103d39190611eb0565b611871565b6040516103e6929190612331565b60405180910390f35b3480156103fb57600080fd5b506104166004803603810190610411919061235a565b6119c8565b604051610423919061213c565b60405180910390f35b34801561043857600080fd5b50610453600480360381019061044e9190611fba565b611b4f565b604051610460919061213c565b60405180910390f35b34801561047557600080fd5b50610490600480360381019061048b9190611eb0565b611ce8565b60405161049d9190611f69565b60405180910390f35b600080836040516104b791906123f2565b9081526020016040518091039020826040516104d391906123f2565b908152602001604051809103902060009054906101000a900473ffffffffffffffffffffffffffffffffffffffff16905092915050565b6000811161054d576040517f08c379a000000000000000000000000000000000000000000000000000000000815260040161054490612455565b60405180910390fd5b6000808460405161055e91906123f2565b90815260200160405180910390208360405161057a91906123f2565b908152602001604051809103902060009054906101000a900473ffffffffffffffffffffffffffffffffffffffff169050600080846040516105bc91906123f2565b9081526020016040518091039020856040516105d891906123f2565b908152602001604051809103902060009054906101000a900473ffffffffffffffffffffffffffffffffffffffff169050600073ffffffffffffffffffffffffffffffffffffffff168273ffffffffffffffffffffffffffffffffffffffff161415806106725750600073ffffffffffffffffffffffffffffffffffffffff168173ffffffffffffffffffffffffffffffffffffffff1614155b6106b1576040517f08c379a00000000000000000000000000000000000000000000000000000000081526004016106a8906124c1565b60405180910390fd5b60008073ffffffffffffffffffffffffffffffffffffffff168373ffffffffffffffffffffffffffffffffffffffff1614610a1a578273ffffffffffffffffffffffffffffffffffffffff1663e4641b748787876040518463ffffffff1660e01b8152600401610723939291906124e1565b602060405180830381865afa158015610740573d6000803e3d6000fd5b505050506040513d601f19601f82011682018060405250810190610764919061253b565b9050600081116107a9576040517f08c379a00000000000000000000000000000000000000000000000000000000081526004016107a0906125da565b60405180910390fd5b6001866040516107b991906123f2565b908152602001604051809103902060009054906101000a900473ffffffffffffffffffffffffffffffffffffffff1673ffffffffffffffffffffffffffffffffffffffff166323b872dd3385876040518463ffffffff1660e01b8152600401610824939291906125fa565b6020604051808303816000875af1158015610843573d6000803e3d6000fd5b505050506040513d601f19601f820116820180604052508101906108679190612669565b6108a6576040517f08c379a000000000000000000000000000000000000000000000000000000000815260040161089d906126e2565b60405180910390fd5b6001856040516108b691906123f2565b908152602001604051809103902060009054906101000a900473ffffffffffffffffffffffffffffffffffffffff1673ffffffffffffffffffffffffffffffffffffffff1663a9059cbb33836040518363ffffffff1660e01b815260040161091f929190612702565b6020604051808303816000875af115801561093e573d6000803e3d6000fd5b505050506040513d601f19601f820116820180604052508101906109629190612669565b6109a1576040517f08c379a0000000000000000000000000000000000000000000000000000000008152600401610998906126e2565b60405180910390fd5b8273ffffffffffffffffffffffffffffffffffffffff1663a5890f2b8787878560006040518663ffffffff1660e01b81526004016109e3959493929190612766565b600060405180830381600087803b1580156109fd57600080fd5b505af1158015610a11573d6000803e3d6000fd5b50505050610db9565b600073ffffffffffffffffffffffffffffffffffffffff168273ffffffffffffffffffffffffffffffffffffffff1603610a89576040517f08c379a0000000000000000000000000000000000000000000000000000000008152600401610a8090612839565b60405180910390fd5b8173ffffffffffffffffffffffffffffffffffffffff1663c45010ed8688876040518463ffffffff1660e01b8152600401610ac6939291906124e1565b602060405180830381865afa158015610ae3573d6000803e3d6000fd5b505050506040513d601f19601f82011682018060405250810190610b07919061253b565b905060008111610b4c576040517f08c379a0000000000000000000000000000000000000000000000000000000008152600401610b43906125da565b60405180910390fd5b600186604051610b5c91906123f2565b908152602001604051809103902060009054906101000a900473ffffffffffffffffffffffffffffffffffffffff1673ffffffffffffffffffffffffffffffffffffffff166323b872dd3384876040518463ffffffff1660e01b8152600401610bc7939291906125fa565b6020604051808303816000875af1158015610be6573d6000803e3d6000fd5b505050506040513d601f19601f82011682018060405250810190610c0a9190612669565b610c49576040517f08c379a0000000000000000000000000000000000000000000000000000000008152600401610c40906126e2565b60405180910390fd5b600185604051610c5991906123f2565b908152602001604051809103902060009054906101000a900473ffffffffffffffffffffffffffffffffffffffff1673ffffffffffffffffffffffffffffffffffffffff1663a9059cbb33836040518363ffffffff1660e01b8152600401610cc2929190612702565b6020604051808303816000875af1158015610ce1573d6000803e3d6000fd5b505050506040513d601f19601f82011682018060405250810190610d059190612669565b610d44576040517f08c379a0000000000000000000000000000000000000000000000000000000008152600401610d3b906126e2565b60405180910390fd5b8173ffffffffffffffffffffffffffffffffffffffff1663a5890f2b8688878560016040518663ffffffff1660e01b8152600401610d86959493929190612894565b600060405180830381600087803b158015610da057600080fd5b505af1158015610db4573d6000803e3d6000fd5b505050505b505050505050565b600082118015610dd15750600081115b610e10576040517f08c379a0000000000000000000000000000000000000000000000000000000008152600401610e0790612455565b60405180910390fd5b60008085604051610e2191906123f2565b908152602001604051809103902084604051610e3d91906123f2565b908152602001604051809103902060009054906101000a900473ffffffffffffffffffffffffffffffffffffffff169050600073ffffffffffffffffffffffffffffffffffffffff168173ffffffffffffffffffffffffffffffffffffffff1603610edd576040517f08c379a0000000000000000000000000000000000000000000000000000000008152600401610ed4906124c1565b60405180910390fd5b8073ffffffffffffffffffffffffffffffffffffffff166352bc0d86868686866040518563ffffffff1660e01b8152600401610f1c94939291906128f5565b600060405180830381600087803b158015610f3657600080fd5b505af1158015610f4a573d6000803e3d6000fd5b505050505050505050565b6000600182604051610f6791906123f2565b908152602001604051809103902060009054906101000a900473ffffffffffffffffffffffffffffffffffffffff1673ffffffffffffffffffffffffffffffffffffffff166318160ddd6040518163ffffffff1660e01b8152600401602060405180830381865afa158015610fe0573d6000803e3d6000fd5b505050506040513d601f19601f82011682018060405250810190611004919061253b565b9050919050565b6000803490506000670de0b6b3a76400006002548361102a91906129a6565b61103491906129d7565b905060018460405161104691906123f2565b908152602001604051809103902060009054906101000a900473ffffffffffffffffffffffffffffffffffffffff1673ffffffffffffffffffffffffffffffffffffffff1663a9059cbb33836040518363ffffffff1660e01b81526004016110af929190612702565b6020604051808303816000875af11580156110ce573d6000803e3d6000fd5b505050506040513d601f19601f820116820180604052508101906110f29190612669565b6110fb57600080fd5b8092505050919050565b606060018260405161111791906123f2565b908152602001604051809103902060009054906101000a900473ffffffffffffffffffffffffffffffffffffffff1673ffffffffffffffffffffffffffffffffffffffff166306fdde036040518163ffffffff1660e01b8152600401600060405180830381865afa158015611190573d6000803e3d6000fd5b505050506040513d6000823e3d601f19601f820116820180604052508101906111b99190612a89565b9050919050565b600047905090565b60006001836040516111da91906123f2565b908152602001604051809103902060009054906101000a900473ffffffffffffffffffffffffffffffffffffffff1673ffffffffffffffffffffffffffffffffffffffff166370a08231836040518263ffffffff1660e01b81526004016112419190611f69565b602060405180830381865afa15801561125e573d6000803e3d6000fd5b505050506040513d601f19601f82011682018060405250810190611282919061253b565b905092915050565b6000806000600160405161129d90612b1e565b908152602001604051809103902060009054906101000a900473ffffffffffffffffffffffffffffffffffffffff1673ffffffffffffffffffffffffffffffffffffffff1663dd62ed3e33306040518363ffffffff1660e01b8152600401611306929190612b33565b602060405180830381865afa158015611323573d6000803e3d6000fd5b505050506040513d601f19601f82011682018060405250810190611347919061253b565b9250600160405161135790612ba8565b908152602001604051809103902060009054906101000a900473ffffffffffffffffffffffffffffffffffffffff1673ffffffffffffffffffffffffffffffffffffffff1663dd62ed3e33306040518363ffffffff1660e01b81526004016113c0929190612b33565b602060405180830381865afa1580156113dd573d6000803e3d6000fd5b505050506040513d601f19601f82011682018060405250810190611401919061253b565b9150600160405161141190612c09565b908152602001604051809103902060009054906101000a900473ffffffffffffffffffffffffffffffffffffffff1673ffffffffffffffffffffffffffffffffffffffff1663dd62ed3e33306040518363ffffffff1660e01b815260040161147a929190612b33565b602060405180830381865afa158015611497573d6000803e3d6000fd5b505050506040513d601f19601f820116820180604052508101906114bb919061253b565b9050909192565b60008111611505576040517f08c379a00000000000000000000000000000000000000000000000000000000081526004016114fc90612c6a565b60405180910390fd5b6000808460405161151691906123f2565b90815260200160405180910390208360405161153291906123f2565b908152602001604051809103902060009054906101000a900473ffffffffffffffffffffffffffffffffffffffff169050600073ffffffffffffffffffffffffffffffffffffffff168173ffffffffffffffffffffffffffffffffffffffff16036115d2576040517f08c379a00000000000000000000000000000000000000000000000000000000081526004016115c9906124c1565b60405180910390fd5b8073ffffffffffffffffffffffffffffffffffffffff1663a8c9e8318585856040518463ffffffff1660e01b815260040161160f939291906124e1565b600060405180830381600087803b15801561162957600080fd5b505af115801561163d573d6000803e3d6000fd5b5050505050505050565b6001818051602081018201805184825260208301602085012081835280955050505050506000915054906101000a900473ffffffffffffffffffffffffffffffffffffffff1681565b60006001826040516116a291906123f2565b908152602001604051809103902060009054906101000a900473ffffffffffffffffffffffffffffffffffffffff169050919050565b600080821161171c576040517f08c379a000000000000000000000000000000000000000000000000000000000815260040161171390612455565b60405180910390fd5b6000808560405161172d91906123f2565b90815260200160405180910390208460405161174991906123f2565b908152602001604051809103902060009054906101000a900473ffffffffffffffffffffffffffffffffffffffff169050600073ffffffffffffffffffffffffffffffffffffffff168173ffffffffffffffffffffffffffffffffffffffff16036117e9576040517f08c379a00000000000000000000000000000000000000000000000000000000081526004016117e0906124c1565b60405180910390fd5b8073ffffffffffffffffffffffffffffffffffffffff1663c45010ed8686866040518463ffffffff1660e01b8152600401611826939291906124e1565b602060405180830381865afa158015611843573d6000803e3d6000fd5b505050506040513d601f19601f82011682018060405250810190611867919061253b565b9150509392505050565b6000806000808560405161188591906123f2565b9081526020016040518091039020846040516118a191906123f2565b908152602001604051809103902060009054906101000a900473ffffffffffffffffffffffffffffffffffffffff169050600073ffffffffffffffffffffffffffffffffffffffff168173ffffffffffffffffffffffffffffffffffffffff1603611941576040517f08c379a0000000000000000000000000000000000000000000000000000000008152600401611938906124c1565b60405180910390fd5b8073ffffffffffffffffffffffffffffffffffffffff1663d8e9648686866040518363ffffffff1660e01b815260040161197c929190612c8a565b6040805180830381865afa158015611998573d6000803e3d6000fd5b505050506040513d601f19601f820116820180604052508101906119bc9190612cc1565b92509250509250929050565b600080670de0b6b3a7640000836119df91906129a6565b90506000600254826119f191906129d7565b905080471015611a36576040517f08c379a0000000000000000000000000000000000000000000000000000000008152600401611a2d90612d4d565b60405180910390fd5b3373ffffffffffffffffffffffffffffffffffffffff166108fc829081150290604051600060405180830381858888f19350505050158015611a7c573d6000803e3d6000fd5b50600185604051611a8d91906123f2565b908152602001604051809103902060009054906101000a900473ffffffffffffffffffffffffffffffffffffffff1673ffffffffffffffffffffffffffffffffffffffff166323b872dd3330876040518463ffffffff1660e01b8152600401611af8939291906125fa565b6020604051808303816000875af1158015611b17573d6000803e3d6000fd5b505050506040513d601f19601f82011682018060405250810190611b3b9190612669565b611b4457600080fd5b809250505092915050565b6000808211611b93576040517f08c379a0000000000000000000000000000000000000000000000000000000008152600401611b8a90612455565b60405180910390fd5b60008085604051611ba491906123f2565b908152602001604051809103902084604051611bc091906123f2565b908152602001604051809103902060009054906101000a900473ffffffffffffffffffffffffffffffffffffffff169050600073ffffffffffffffffffffffffffffffffffffffff168173ffffffffffffffffffffffffffffffffffffffff1603611c60576040517f08c379a0000000000000000000000000000000000000000000000000000000008152600401611c57906124c1565b60405180910390fd5b8073ffffffffffffffffffffffffffffffffffffffff1663e4641b748686866040518463ffffffff1660e01b8152600401611c9d939291906124e1565b602060405180830381865afa158015611cba573d6000803e3d6000fd5b505050506040513d601f19601f82011682018060405250810190611cde919061253b565b9150509392505050565b600082805160208101820180518482526020830160208501208183528095505050505050818051602081018201805184825260208301602085012081835280955050505050506000915091509054906101000a900473ffffffffffffffffffffffffffffffffffffffff1681565b6000604051905090565b600080fd5b600080fd5b600080fd5b600080fd5b6000601f19601f8301169050919050565b7f4e487b7100000000000000000000000000000000000000000000000000000000600052604160045260246000fd5b611dbd82611d74565b810181811067ffffffffffffffff82111715611ddc57611ddb611d85565b5b80604052505050565b6000611def611d56565b9050611dfb8282611db4565b919050565b600067ffffffffffffffff821115611e1b57611e1a611d85565b5b611e2482611d74565b9050602081019050919050565b82818337600083830152505050565b6000611e53611e4e84611e00565b611de5565b905082815260208101848484011115611e6f57611e6e611d6f565b5b611e7a848285611e31565b509392505050565b600082601f830112611e9757611e96611d6a565b5b8135611ea7848260208601611e40565b91505092915050565b60008060408385031215611ec757611ec6611d60565b5b600083013567ffffffffffffffff811115611ee557611ee4611d65565b5b611ef185828601611e82565b925050602083013567ffffffffffffffff811115611f1257611f11611d65565b5b611f1e85828601611e82565b9150509250929050565b600073ffffffffffffffffffffffffffffffffffffffff82169050919050565b6000611f5382611f28565b9050919050565b611f6381611f48565b82525050565b6000602082019050611f7e6000830184611f5a565b92915050565b6000819050919050565b611f9781611f84565b8114611fa257600080fd5b50565b600081359050611fb481611f8e565b92915050565b600080600060608486031215611fd357611fd2611d60565b5b600084013567ffffffffffffffff811115611ff157611ff0611d65565b5b611ffd86828701611e82565b935050602084013567ffffffffffffffff81111561201e5761201d611d65565b5b61202a86828701611e82565b925050604061203b86828701611fa5565b9150509250925092565b6000806000806080858703121561205f5761205e611d60565b5b600085013567ffffffffffffffff81111561207d5761207c611d65565b5b61208987828801611e82565b945050602085013567ffffffffffffffff8111156120aa576120a9611d65565b5b6120b687828801611e82565b93505060406120c787828801611fa5565b92505060606120d887828801611fa5565b91505092959194509250565b6000602082840312156120fa576120f9611d60565b5b600082013567ffffffffffffffff81111561211857612117611d65565b5b61212484828501611e82565b91505092915050565b61213681611f84565b82525050565b6000602082019050612151600083018461212d565b92915050565b600081519050919050565b600082825260208201905092915050565b60005b83811015612191578082015181840152602081019050612176565b60008484015250505050565b60006121a882612157565b6121b28185612162565b93506121c2818560208601612173565b6121cb81611d74565b840191505092915050565b600060208201905081810360008301526121f0818461219d565b905092915050565b61220181611f48565b811461220c57600080fd5b50565b60008135905061221e816121f8565b92915050565b6000806040838503121561223b5761223a611d60565b5b600083013567ffffffffffffffff81111561225957612258611d65565b5b61226585828601611e82565b92505060206122768582860161220f565b9150509250929050565b6000606082019050612295600083018661212d565b6122a2602083018561212d565b6122af604083018461212d565b949350505050565b6000819050919050565b60006122dc6122d76122d284611f28565b6122b7565b611f28565b9050919050565b60006122ee826122c1565b9050919050565b6000612300826122e3565b9050919050565b612310816122f5565b82525050565b600060208201905061232b6000830184612307565b92915050565b6000604082019050612346600083018561212d565b612353602083018461212d565b9392505050565b6000806040838503121561237157612370611d60565b5b600083013567ffffffffffffffff81111561238f5761238e611d65565b5b61239b85828601611e82565b92505060206123ac85828601611fa5565b9150509250929050565b600081905092915050565b60006123cc82612157565b6123d681856123b6565b93506123e6818560208601612173565b80840191505092915050565b60006123fe82846123c1565b915081905092915050565b7f416d6f756e74206d7573742062652067726561746572207468616e2030000000600082015250565b600061243f601d83612162565b915061244a82612409565b602082019050919050565b6000602082019050818103600083015261246e81612432565b9050919050565b7f4c697175696469747920706f6f6c20646f6573206e6f74206578697374000000600082015250565b60006124ab601d83612162565b91506124b682612475565b602082019050919050565b600060208201905081810360008301526124da8161249e565b9050919050565b600060608201905081810360008301526124fb818661219d565b9050818103602083015261250f818561219d565b905061251e604083018461212d565b949350505050565b60008151905061253581611f8e565b92915050565b60006020828403121561255157612550611d60565b5b600061255f84828501612526565b91505092915050565b7f496e73756666696369656e74206c697175696469747920666f7220746865207360008201527f7761700000000000000000000000000000000000000000000000000000000000602082015250565b60006125c4602383612162565b91506125cf82612568565b604082019050919050565b600060208201905081810360008301526125f3816125b7565b9050919050565b600060608201905061260f6000830186611f5a565b61261c6020830185611f5a565b612629604083018461212d565b949350505050565b60008115159050919050565b61264681612631565b811461265157600080fd5b50565b6000815190506126638161263d565b92915050565b60006020828403121561267f5761267e611d60565b5b600061268d84828501612654565b91505092915050565b7f5472616e73666572206661696c65640000000000000000000000000000000000600082015250565b60006126cc600f83612162565b91506126d782612696565b602082019050919050565b600060208201905081810360008301526126fb816126bf565b9050919050565b60006040820190506127176000830185611f5a565b612724602083018461212d565b9392505050565b6000819050919050565b600061275061274b6127468461272b565b6122b7565b611f84565b9050919050565b61276081612735565b82525050565b600060a0820190508181036000830152612780818861219d565b90508181036020830152612794818761219d565b90506127a3604083018661212d565b6127b0606083018561212d565b6127bd6080830184612757565b9695505050505050565b7f52657665727365206c697175696469747920706f6f6c20646f6573206e6f742060008201527f6578697374000000000000000000000000000000000000000000000000000000602082015250565b6000612823602583612162565b915061282e826127c7565b604082019050919050565b6000602082019050818103600083015261285281612816565b9050919050565b6000819050919050565b600061287e61287961287484612859565b6122b7565b611f84565b9050919050565b61288e81612863565b82525050565b600060a08201905081810360008301526128ae818861219d565b905081810360208301526128c2818761219d565b90506128d1604083018661212d565b6128de606083018561212d565b6128eb6080830184612885565b9695505050505050565b6000608082019050818103600083015261290f818761219d565b90508181036020830152612923818661219d565b9050612932604083018561212d565b61293f606083018461212d565b95945050505050565b7f4e487b7100000000000000000000000000000000000000000000000000000000600052601260045260246000fd5b7f4e487b7100000000000000000000000000000000000000000000000000000000600052601160045260246000fd5b60006129b182611f84565b91506129bc83611f84565b9250826129cc576129cb612948565b5b828204905092915050565b60006129e282611f84565b91506129ed83611f84565b92508282026129fb81611f84565b91508282048414831517612a1257612a11612977565b5b5092915050565b6000612a2c612a2784611e00565b611de5565b905082815260208101848484011115612a4857612a47611d6f565b5b612a53848285612173565b509392505050565b600082601f830112612a7057612a6f611d6a565b5b8151612a80848260208601612a19565b91505092915050565b600060208284031215612a9f57612a9e611d60565b5b600082015167ffffffffffffffff811115612abd57612abc611d65565b5b612ac984828501612a5b565b91505092915050565b7f436f696e41000000000000000000000000000000000000000000000000000000600082015250565b6000612b086005836123b6565b9150612b1382612ad2565b600582019050919050565b6000612b2982612afb565b9150819050919050565b6000604082019050612b486000830185611f5a565b612b556020830184611f5a565b9392505050565b7f436f696e42000000000000000000000000000000000000000000000000000000600082015250565b6000612b926005836123b6565b9150612b9d82612b5c565b600582019050919050565b6000612bb382612b85565b9150819050919050565b7f436f696e43000000000000000000000000000000000000000000000000000000600082015250565b6000612bf36005836123b6565b9150612bfe82612bbd565b600582019050919050565b6000612c1482612be6565b9150819050919050565b7f4c6971756964697479206d7573742062652067726561746572207468616e2030600082015250565b6000612c54602083612162565b9150612c5f82612c1e565b602082019050919050565b60006020820190508181036000830152612c8381612c47565b9050919050565b60006040820190508181036000830152612ca4818561219d565b90508181036020830152612cb8818461219d565b90509392505050565b60008060408385031215612cd857612cd7611d60565b5b6000612ce685828601612526565b9250506020612cf785828601612526565b9150509250929050565b7f4465782069732072756e6e696e67206c6f77206f6e2062616c616e63652e0000600082015250565b6000612d37601e83612162565b9150612d4282612d01565b602082019050919050565b60006020820190508181036000830152612d6681612d2a565b905091905056fea264697066735822122019ba2b7762ea58499d21ab9d499b4d4644f42839a93bd22515fbdd7fbf6c5a1f64736f6c6343000812003360806040523480156200001157600080fd5b5060405162001a9e38038062001a9e83398181016040528101906200003791906200038d565b818181600390816200004a91906200065d565b5080600490816200005c91906200065d565b5050506200007b3369152d02c7e14af68000006200008360201b60201c565b50506200085f565b600073ffffffffffffffffffffffffffffffffffffffff168273ffffffffffffffffffffffffffffffffffffffff1603620000f5576040517f08c379a0000000000000000000000000000000000000000000000000000000008152600401620000ec90620007a5565b60405180910390fd5b6200010960008383620001f060201b60201c565b80600260008282546200011d9190620007f6565b92505081905550806000808473ffffffffffffffffffffffffffffffffffffffff1673ffffffffffffffffffffffffffffffffffffffff168152602001908152602001600020600082825401925050819055508173ffffffffffffffffffffffffffffffffffffffff16600073ffffffffffffffffffffffffffffffffffffffff167fddf252ad1be2c89b69c2b068fc378daa952ba7f163c4a11628f55a4df523b3ef83604051620001d0919062000842565b60405180910390a3620001ec60008383620001f560201b60201c565b5050565b505050565b505050565b6000604051905090565b600080fd5b600080fd5b600080fd5b600080fd5b6000601f19601f8301169050919050565b7f4e487b7100000000000000000000000000000000000000000000000000000000600052604160045260246000fd5b620002638262000218565b810181811067ffffffffffffffff8211171562000285576200028462000229565b5b80604052505050565b60006200029a620001fa565b9050620002a8828262000258565b919050565b600067ffffffffffffffff821115620002cb57620002ca62000229565b5b620002d68262000218565b9050602081019050919050565b60005b8381101562000303578082015181840152602081019050620002e6565b60008484015250505050565b6000620003266200032084620002ad565b6200028e565b90508281526020810184848401111562000345576200034462000213565b5b62000352848285620002e3565b509392505050565b600082601f8301126200037257620003716200020e565b5b8151620003848482602086016200030f565b91505092915050565b60008060408385031215620003a757620003a662000204565b5b600083015167ffffffffffffffff811115620003c857620003c762000209565b5b620003d6858286016200035a565b925050602083015167ffffffffffffffff811115620003fa57620003f962000209565b5b62000408858286016200035a565b9150509250929050565b600081519050919050565b7f4e487b7100000000000000000000000000000000000000000000000000000000600052602260045260246000fd5b600060028204905060018216806200046557607f821691505b6020821081036200047b576200047a6200041d565b5b50919050565b60008190508160005260206000209050919050565b60006020601f8301049050919050565b600082821b905092915050565b600060088302620004e57fffffffffffffffffffffffffffffffffffffffffffffffffffffffffffffffff82620004a6565b620004f18683620004a6565b95508019841693508086168417925050509392505050565b6000819050919050565b6000819050919050565b60006200053e62000538620005328462000509565b62000513565b62000509565b9050919050565b6000819050919050565b6200055a836200051d565b62000572620005698262000545565b848454620004b3565b825550505050565b600090565b620005896200057a565b620005968184846200054f565b505050565b5b81811015620005be57620005b26000826200057f565b6001810190506200059c565b5050565b601f8211156200060d57620005d78162000481565b620005e28462000496565b81016020851015620005f2578190505b6200060a620006018562000496565b8301826200059b565b50505b505050565b600082821c905092915050565b6000620006326000198460080262000612565b1980831691505092915050565b60006200064d83836200061f565b9150826002028217905092915050565b620006688262000412565b67ffffffffffffffff81111562000684576200068362000229565b5b6200069082546200044c565b6200069d828285620005c2565b600060209050601f831160018114620006d55760008415620006c0578287015190505b620006cc85826200063f565b8655506200073c565b601f198416620006e58662000481565b60005b828110156200070f57848901518255600182019150602085019450602081019050620006e8565b868310156200072f57848901516200072b601f8916826200061f565b8355505b6001600288020188555050505b505050505050565b600082825260208201905092915050565b7f45524332303a206d696e7420746f20746865207a65726f206164647265737300600082015250565b60006200078d601f8362000744565b91506200079a8262000755565b602082019050919050565b60006020820190508181036000830152620007c0816200077e565b9050919050565b7f4e487b7100000000000000000000000000000000000000000000000000000000600052601160045260246000fd5b6000620008038262000509565b9150620008108362000509565b92508282019050808211156200082b576200082a620007c7565b5b92915050565b6200083c8162000509565b82525050565b600060208201905062000859600083018462000831565b92915050565b61122f806200086f6000396000f3fe608060405234801561001057600080fd5b50600436106100a95760003560e01c80633950935111610071578063395093511461016857806370a082311461019857806395d89b41146101c8578063a457c2d7146101e6578063a9059cbb14610216578063dd62ed3e14610246576100a9565b806306fdde03146100ae578063095ea7b3146100cc57806318160ddd146100fc57806323b872dd1461011a578063313ce5671461014a575b600080fd5b6100b6610276565b6040516100c39190610b0c565b60405180910390f35b6100e660048036038101906100e19190610bc7565b610308565b6040516100f39190610c22565b60405180910390f35b61010461032b565b6040516101119190610c4c565b60405180910390f35b610134600480360381019061012f9190610c67565b610335565b6040516101419190610c22565b60405180910390f35b610152610364565b60405161015f9190610cd6565b60405180910390f35b610182600480360381019061017d9190610bc7565b61036d565b60405161018f9190610c22565b60405180910390f35b6101b260048036038101906101ad9190610cf1565b6103a4565b6040516101bf9190610c4c565b60405180910390f35b6101d06103ec565b6040516101dd9190610b0c565b60405180910390f35b61020060048036038101906101fb9190610bc7565b61047e565b60405161020d9190610c22565b60405180910390f35b610230600480360381019061022b9190610bc7565b6104f5565b60405161023d9190610c22565b60405180910390f35b610260600480360381019061025b9190610d1e565b610518565b60405161026d9190610c4c565b60405180910390f35b60606003805461028590610d8d565b80601f01602080910402602001604051908101604052809291908181526020018280546102b190610d8d565b80156102fe5780601f106102d3576101008083540402835291602001916102fe565b820191906000526020600020905b8154815290600101906020018083116102e157829003601f168201915b5050505050905090565b60008061031361059f565b90506103208185856105a7565b600191505092915050565b6000600254905090565b60008061034061059f565b905061034d858285610770565b6103588585856107fc565b60019150509392505050565b60006012905090565b60008061037861059f565b905061039981858561038a8589610518565b6103949190610ded565b6105a7565b600191505092915050565b60008060008373ffffffffffffffffffffffffffffffffffffffff1673ffffffffffffffffffffffffffffffffffffffff168152602001908152602001600020549050919050565b6060600480546103fb90610d8d565b80601f016020809104026020016040519081016040528092919081815260200182805461042790610d8d565b80156104745780601f1061044957610100808354040283529160200191610474565b820191906000526020600020905b81548152906001019060200180831161045757829003601f168201915b5050505050905090565b60008061048961059f565b905060006104978286610518565b9050838110156104dc576040517f08c379a00000000000000000000000000000000000000000000000000000000081526004016104d390610e93565b60405180910390fd5b6104e982868684036105a7565b60019250505092915050565b60008061050061059f565b905061050d8185856107fc565b600191505092915050565b6000600160008473ffffffffffffffffffffffffffffffffffffffff1673ffffffffffffffffffffffffffffffffffffffff16815260200190815260200160002060008373ffffffffffffffffffffffffffffffffffffffff1673ffffffffffffffffffffffffffffffffffffffff16815260200190815260200160002054905092915050565b600033905090565b600073ffffffffffffffffffffffffffffffffffffffff168373ffffffffffffffffffffffffffffffffffffffff1603610616576040517f08c379a000000000000000000000000000000000000000000000000000000000815260040161060d90610f25565b60405180910390fd5b600073ffffffffffffffffffffffffffffffffffffffff168273ffffffffffffffffffffffffffffffffffffffff1603610685576040517f08c379a000000000000000000000000000000000000000000000000000000000815260040161067c90610fb7565b60405180910390fd5b80600160008573ffffffffffffffffffffffffffffffffffffffff1673ffffffffffffffffffffffffffffffffffffffff16815260200190815260200160002060008473ffffffffffffffffffffffffffffffffffffffff1673ffffffffffffffffffffffffffffffffffffffff168152602001908152602001600020819055508173ffffffffffffffffffffffffffffffffffffffff168373ffffffffffffffffffffffffffffffffffffffff167f8c5be1e5ebec7d5bd14f71427d1e84f3dd0314c0f7b2291e5b200ac8c7c3b925836040516107639190610c4c565b60405180910390a3505050565b600061077c8484610518565b90507fffffffffffffffffffffffffffffffffffffffffffffffffffffffffffffffff81146107f657818110156107e8576040517f08c379a00000000000000000000000000000000000000000000000000000000081526004016107df90611023565b60405180910390fd5b6107f584848484036105a7565b5b50505050565b600073ffffffffffffffffffffffffffffffffffffffff168373ffffffffffffffffffffffffffffffffffffffff160361086b576040517f08c379a0000000000000000000000000000000000000000000000000000000008152600401610862906110b5565b60405180910390fd5b600073ffffffffffffffffffffffffffffffffffffffff168273ffffffffffffffffffffffffffffffffffffffff16036108da576040517f08c379a00000000000000000000000000000000000000000000000000000000081526004016108d190611147565b60405180910390fd5b6108e5838383610a72565b60008060008573ffffffffffffffffffffffffffffffffffffffff1673ffffffffffffffffffffffffffffffffffffffff1681526020019081526020016000205490508181101561096b576040517f08c379a0000000000000000000000000000000000000000000000000000000008152600401610962906111d9565b60405180910390fd5b8181036000808673ffffffffffffffffffffffffffffffffffffffff1673ffffffffffffffffffffffffffffffffffffffff16815260200190815260200160002081905550816000808573ffffffffffffffffffffffffffffffffffffffff1673ffffffffffffffffffffffffffffffffffffffff168152602001908152602001600020600082825401925050819055508273ffffffffffffffffffffffffffffffffffffffff168473ffffffffffffffffffffffffffffffffffffffff167fddf252ad1be2c89b69c2b068fc378daa952ba7f163c4a11628f55a4df523b3ef84604051610a599190610c4c565b60405180910390a3610a6c848484610a77565b50505050565b505050565b505050565b600081519050919050565b600082825260208201905092915050565b60005b83811015610ab6578082015181840152602081019050610a9b565b60008484015250505050565b6000601f19601f8301169050919050565b6000610ade82610a7c565b610ae88185610a87565b9350610af8818560208601610a98565b610b0181610ac2565b840191505092915050565b60006020820190508181036000830152610b268184610ad3565b905092915050565b600080fd5b600073ffffffffffffffffffffffffffffffffffffffff82169050919050565b6000610b5e82610b33565b9050919050565b610b6e81610b53565b8114610b7957600080fd5b50565b600081359050610b8b81610b65565b92915050565b6000819050919050565b610ba481610b91565b8114610baf57600080fd5b50565b600081359050610bc181610b9b565b92915050565b60008060408385031215610bde57610bdd610b2e565b5b6000610bec85828601610b7c565b9250506020610bfd85828601610bb2565b9150509250929050565b60008115159050919050565b610c1c81610c07565b82525050565b6000602082019050610c376000830184610c13565b92915050565b610c4681610b91565b82525050565b6000602082019050610c616000830184610c3d565b92915050565b600080600060608486031215610c8057610c7f610b2e565b5b6000610c8e86828701610b7c565b9350506020610c9f86828701610b7c565b9250506040610cb086828701610bb2565b9150509250925092565b600060ff82169050919050565b610cd081610cba565b82525050565b6000602082019050610ceb6000830184610cc7565b92915050565b600060208284031215610d0757610d06610b2e565b5b6000610d1584828501610b7c565b91505092915050565b60008060408385031215610d3557610d34610b2e565b5b6000610d4385828601610b7c565b9250506020610d5485828601610b7c565b9150509250929050565b7f4e487b7100000000000000000000000000000000000000000000000000000000600052602260045260246000fd5b60006002820490506001821680610da557607f821691505b602082108103610db857610db7610d5e565b5b50919050565b7f4e487b7100000000000000000000000000000000000000000000000000000000600052601160045260246000fd5b6000610df882610b91565b9150610e0383610b91565b9250828201905080821115610e1b57610e1a610dbe565b5b92915050565b7f45524332303a2064656372656173656420616c6c6f77616e63652062656c6f7760008201527f207a65726f000000000000000000000000000000000000000000000000000000602082015250565b6000610e7d602583610a87565b9150610e8882610e21565b604082019050919050565b60006020820190508181036000830152610eac81610e70565b9050919050565b7f45524332303a20617070726f76652066726f6d20746865207a65726f2061646460008201527f7265737300000000000000000000000000000000000000000000000000000000602082015250565b6000610f0f602483610a87565b9150610f1a82610eb3565b604082019050919050565b60006020820190508181036000830152610f3e81610f02565b9050919050565b7f45524332303a20617070726f766520746f20746865207a65726f20616464726560008201527f7373000000000000000000000000000000000000000000000000000000000000602082015250565b6000610fa1602283610a87565b9150610fac82610f45565b604082019050919050565b60006020820190508181036000830152610fd081610f94565b9050919050565b7f45524332303a20696e73756666696369656e7420616c6c6f77616e6365000000600082015250565b600061100d601d83610a87565b915061101882610fd7565b602082019050919050565b6000602082019050818103600083015261103c81611000565b9050919050565b7f45524332303a207472616e736665722066726f6d20746865207a65726f20616460008201527f6472657373000000000000000000000000000000000000000000000000000000602082015250565b600061109f602583610a87565b91506110aa82611043565b604082019050919050565b600060208201905081810360008301526110ce81611092565b9050919050565b7f45524332303a207472616e7366657220746f20746865207a65726f206164647260008201527f6573730000000000000000000000000000000000000000000000000000000000602082015250565b6000611131602383610a87565b915061113c826110d5565b604082019050919050565b6000602082019050818103600083015261116081611124565b9050919050565b7f45524332303a207472616e7366657220616d6f756e742065786365656473206260008201527f616c616e63650000000000000000000000000000000000000000000000000000602082015250565b60006111c3602683610a87565b91506111ce82611167565b604082019050919050565b600060208201905081810360008301526111f2816111b6565b905091905056fea2646970667358221220ac102a5928d3018fcc18d091b36f67a4aaef90b7a49f01b99c9c1c101bd420aa64736f6c6343000812003360806040523480156200001157600080fd5b50604051620013ae380380620013ae833981810160405281019062000037919062000279565b6040518060400160405280838152602001828152506000856040516200005e919062000376565b9081526020016040518091039020846040516200007c919062000376565b90815260200160405180910390206000820151816000015560208201518160010155905050505050506200038f565b6000604051905090565b600080fd5b600080fd5b600080fd5b600080fd5b6000601f19601f8301169050919050565b7f4e487b7100000000000000000000000000000000000000000000000000000000600052604160045260246000fd5b6200011482620000c9565b810181811067ffffffffffffffff82111715620001365762000135620000da565b5b80604052505050565b60006200014b620000ab565b905062000159828262000109565b919050565b600067ffffffffffffffff8211156200017c576200017b620000da565b5b6200018782620000c9565b9050602081019050919050565b60005b83811015620001b457808201518184015260208101905062000197565b60008484015250505050565b6000620001d7620001d1846200015e565b6200013f565b905082815260208101848484011115620001f657620001f5620000c4565b5b6200020384828562000194565b509392505050565b600082601f830112620002235762000222620000bf565b5b815162000235848260208601620001c0565b91505092915050565b6000819050919050565b62000253816200023e565b81146200025f57600080fd5b50565b600081519050620002738162000248565b92915050565b60008060008060808587031215620002965762000295620000b5565b5b600085015167ffffffffffffffff811115620002b757620002b6620000ba565b5b620002c5878288016200020b565b945050602085015167ffffffffffffffff811115620002e957620002e8620000ba565b5b620002f7878288016200020b565b93505060406200030a8782880162000262565b92505060606200031d8782880162000262565b91505092959194509250565b600081519050919050565b600081905092915050565b60006200034c8262000329565b62000358818562000334565b93506200036a81856020860162000194565b80840191505092915050565b60006200038482846200033f565b915081905092915050565b61100f806200039f6000396000f3fe608060405234801561001057600080fd5b506004361061007d5760003560e01c8063a8c9e8311161005b578063a8c9e831146100eb578063c45010ed14610107578063d8e9648614610137578063e4641b74146101685761007d565b806352bc0d86146100825780637373366d1461009e578063a5890f2b146100cf575b600080fd5b61009c6004803603810190610097919061098f565b610198565b005b6100b860048036038101906100b39190610a2e565b61031b565b6040516100c6929190610ab5565b60405180910390f35b6100e960048036038101906100e49190610ade565b610378565b005b61010560048036038101906101009190610b91565b6104df565b005b610121600480360381019061011c9190610b91565b610655565b60405161012e9190610c1c565b60405180910390f35b610151600480360381019061014c9190610a2e565b6106ff565b60405161015f929190610ab5565b60405180910390f35b610182600480360381019061017d9190610b91565b610755565b60405161018f9190610c1c565b60405180910390f35b6000821180156101a85750600081115b6101e7576040517f08c379a00000000000000000000000000000000000000000000000000000000081526004016101de90610c94565b60405180910390fd5b600080856040516101f89190610d25565b9081526020016040518091039020846040516102149190610d25565b9081526020016040518091039020905060008382600001546102369190610d6b565b9050600083836001015461024a9190610d6b565b905080836000015461025c9190610d9f565b83600101548361026c9190610d9f565b146102ac576040517f08c379a00000000000000000000000000000000000000000000000000000000081526004016102a390610e2d565b60405180910390fd5b8183600001819055508083600101819055503373ffffffffffffffffffffffffffffffffffffffff167fe533c07a27a13a478e68c9a6c2d74ef79ccfe11c36eea8f72391582a4017b5c18888888860405161030a9493929190610e86565b60405180910390a250505050505050565b60008280516020810182018051848252602083016020850120818352809550505050505081805160208101820180518482526020830160208501208183528095505050505050600091509150508060000154908060010154905082565b600080866040516103899190610d25565b9081526020016040518091039020856040516103a59190610d25565b908152602001604051809103902090506001820361044c57828160000160008282546103d19190610ed9565b92505081905550838160010160008282546103ec9190610d6b565b925050819055503373ffffffffffffffffffffffffffffffffffffffff167fcd9c9799c652885dff44ea1d302db36aebd8e947d8d0a364f51681d8ed5b2d9c8688868860405161043f9493929190610e86565b60405180910390a26104d7565b838160000160008282546104609190610d6b565b925050819055508281600101600082825461047b9190610ed9565b925050819055503373ffffffffffffffffffffffffffffffffffffffff167fcd9c9799c652885dff44ea1d302db36aebd8e947d8d0a364f51681d8ed5b2d9c878787876040516104ce9493929190610e86565b60405180910390a25b505050505050565b60008111610522576040517f08c379a000000000000000000000000000000000000000000000000000000000815260040161051990610f59565b60405180910390fd5b600080846040516105339190610d25565b90815260200160405180910390208360405161054f9190610d25565b908152602001604051809103902090506000816001015482600001546105759190610d6b565b8260000154846105859190610d9f565b61058f9190610fa8565b90506000826001015483600001546105a79190610d6b565b8360010154856105b79190610d9f565b6105c19190610fa8565b9050818360000160008282546105d79190610ed9565b92505081905550808360010160008282546105f29190610ed9565b925050819055503373ffffffffffffffffffffffffffffffffffffffff167f14fd703fc150e7fe9e776413882feecdbfb3bbbff26ef76dba3e64b941b2f386878785856040516106459493929190610e86565b60405180910390a2505050505050565b6000808211610699576040517f08c379a000000000000000000000000000000000000000000000000000000000815260040161069090610c94565b60405180910390fd5b600080856040516106aa9190610d25565b9081526020016040518091039020846040516106c69190610d25565b9081526020016040518091039020905080600101548382600001546106eb9190610d9f565b6106f59190610fa8565b9150509392505050565b600080600080856040516107139190610d25565b90815260200160405180910390208460405161072f9190610d25565b908152602001604051809103902090508060000154816001015492509250509250929050565b6000808211610799576040517f08c379a000000000000000000000000000000000000000000000000000000000815260040161079090610c94565b60405180910390fd5b600080856040516107aa9190610d25565b9081526020016040518091039020846040516107c69190610d25565b9081526020016040518091039020905080600001548382600101546107eb9190610d9f565b6107f59190610fa8565b9150509392505050565b6000604051905090565b600080fd5b600080fd5b600080fd5b600080fd5b6000601f19601f8301169050919050565b7f4e487b7100000000000000000000000000000000000000000000000000000000600052604160045260246000fd5b6108668261081d565b810181811067ffffffffffffffff821117156108855761088461082e565b5b80604052505050565b60006108986107ff565b90506108a4828261085d565b919050565b600067ffffffffffffffff8211156108c4576108c361082e565b5b6108cd8261081d565b9050602081019050919050565b82818337600083830152505050565b60006108fc6108f7846108a9565b61088e565b90508281526020810184848401111561091857610917610818565b5b6109238482856108da565b509392505050565b600082601f8301126109405761093f610813565b5b81356109508482602086016108e9565b91505092915050565b6000819050919050565b61096c81610959565b811461097757600080fd5b50565b60008135905061098981610963565b92915050565b600080600080608085870312156109a9576109a8610809565b5b600085013567ffffffffffffffff8111156109c7576109c661080e565b5b6109d38782880161092b565b945050602085013567ffffffffffffffff8111156109f4576109f361080e565b5b610a008782880161092b565b9350506040610a118782880161097a565b9250506060610a228782880161097a565b91505092959194509250565b60008060408385031215610a4557610a44610809565b5b600083013567ffffffffffffffff811115610a6357610a6261080e565b5b610a6f8582860161092b565b925050602083013567ffffffffffffffff811115610a9057610a8f61080e565b5b610a9c8582860161092b565b9150509250929050565b610aaf81610959565b82525050565b6000604082019050610aca6000830185610aa6565b610ad76020830184610aa6565b9392505050565b600080600080600060a08688031215610afa57610af9610809565b5b600086013567ffffffffffffffff811115610b1857610b1761080e565b5b610b248882890161092b565b955050602086013567ffffffffffffffff811115610b4557610b4461080e565b5b610b518882890161092b565b9450506040610b628882890161097a565b9350506060610b738882890161097a565b9250506080610b848882890161097a565b9150509295509295909350565b600080600060608486031215610baa57610ba9610809565b5b600084013567ffffffffffffffff811115610bc857610bc761080e565b5b610bd48682870161092b565b935050602084013567ffffffffffffffff811115610bf557610bf461080e565b5b610c018682870161092b565b9250506040610c128682870161097a565b9150509250925092565b6000602082019050610c316000830184610aa6565b92915050565b600082825260208201905092915050565b7f416d6f756e74206d7573742062652067726561746572207468616e2030000000600082015250565b6000610c7e601d83610c37565b9150610c8982610c48565b602082019050919050565b60006020820190508181036000830152610cad81610c71565b9050919050565b600081519050919050565b600081905092915050565b60005b83811015610ce8578082015181840152602081019050610ccd565b60008484015250505050565b6000610cff82610cb4565b610d098185610cbf565b9350610d19818560208601610cca565b80840191505092915050565b6000610d318284610cf4565b915081905092915050565b7f4e487b7100000000000000000000000000000000000000000000000000000000600052601160045260246000fd5b6000610d7682610959565b9150610d8183610959565b9250828201905080821115610d9957610d98610d3c565b5b92915050565b6000610daa82610959565b9150610db583610959565b9250828202610dc381610959565b91508282048414831517610dda57610dd9610d3c565b5b5092915050565b7f4c6971756964697479206d757374206d61696e7461696e20726174696f000000600082015250565b6000610e17601d83610c37565b9150610e2282610de1565b602082019050919050565b60006020820190508181036000830152610e4681610e0a565b9050919050565b6000610e5882610cb4565b610e628185610c37565b9350610e72818560208601610cca565b610e7b8161081d565b840191505092915050565b60006080820190508181036000830152610ea08187610e4d565b90508181036020830152610eb48186610e4d565b9050610ec36040830185610aa6565b610ed06060830184610aa6565b95945050505050565b6000610ee482610959565b9150610eef83610959565b9250828203905081811115610f0757610f06610d3c565b5b92915050565b7f4c6971756964697479206d7573742062652067726561746572207468616e2030600082015250565b6000610f43602083610c37565b9150610f4e82610f0d565b602082019050919050565b60006020820190508181036000830152610f7281610f36565b9050919050565b7f4e487b7100000000000000000000000000000000000000000000000000000000600052601260045260246000fd5b6000610fb382610959565b9150610fbe83610959565b925082610fce57610fcd610f79565b5b82820490509291505056fea26469706673582212205a40b4fe46d8948cb4a96dbe80068c28194d782284f22d149e5b6dd6c6e0a63064736f6c63430008120033",
  "linkReferences": {},
  "deployedLinkReferences": {}
}