{
  "_format": "hh-sol-artifact-1",
  "contractName": "CryptoSwap",
  "sourceName": "contracts/CryptoSwap.sol",
  "abi": [
    {
      "inputs": [],
      "stateMutability": "nonpayable",
      "type": "constructor"
    },
    {
      "anonymous": false,
      "inputs": [
        {
          "indexed": true,
          "internalType": "string",
          "name": "token1",
          "type": "string"
        },
        {
          "indexed": false,
          "internalType": "string",
          "name": "token2",
          "type": "string"
        },
        {
          "indexed": false,
          "internalType": "address",
          "name": "poolAddress",
          "type": "address"
        },
        {
          "indexed": false,
          "internalType": "uint256",
          "name": "initialAmountToken1",
          "type": "uint256"
        },
        {
          "indexed": false,
          "internalType": "uint256",
          "name": "initialAmountToken2",
          "type": "uint256"
        }
      ],
      "name": "LiquidityPoolCreated",
      "type": "event"
    },
    {
      "inputs": [
        {
          "internalType": "string",
          "name": "CoinA",
          "type": "string"
        },
        {
          "internalType": "string",
          "name": "CoinB",
          "type": "string"
        },
        {
          "internalType": "uint256",
          "name": "amount1",
          "type": "uint256"
        },
        {
          "internalType": "uint256",
          "name": "amount2",
          "type": "uint256"
        }
      ],
      "name": "addLiquidity",
      "outputs": [],
      "stateMutability": "nonpayable",
      "type": "function"
    },
    {
      "inputs": [],
      "name": "getAllowance",
      "outputs": [
        {
          "internalType": "uint256",
          "name": "allowance1",
          "type": "uint256"
        },
        {
          "internalType": "uint256",
          "name": "allowance2",
          "type": "uint256"
        },
        {
          "internalType": "uint256",
          "name": "allowance3",
          "type": "uint256"
        }
      ],
      "stateMutability": "view",
      "type": "function"
    },
    {
      "inputs": [
        {
          "internalType": "string",
          "name": "CoinA",
          "type": "string"
        },
        {
          "internalType": "string",
          "name": "CoinB",
          "type": "string"
        },
        {
          "internalType": "uint256",
          "name": "amountOut",
          "type": "uint256"
        }
      ],
      "name": "getAmountIn",
      "outputs": [
        {
          "internalType": "uint256",
          "name": "",
          "type": "uint256"
        }
      ],
      "stateMutability": "view",
      "type": "function"
    },
    {
      "inputs": [
        {
          "internalType": "string",
          "name": "CoinA",
          "type": "string"
        },
        {
          "internalType": "string",
          "name": "CoinB",
          "type": "string"
        },
        {
          "internalType": "uint256",
          "name": "amountIn",
          "type": "uint256"
        }
      ],
      "name": "getAmountOut",
      "outputs": [
        {
          "internalType": "uint256",
          "name": "",
          "type": "uint256"
        }
      ],
      "stateMutability": "view",
      "type": "function"
    },
    {
      "inputs": [
        {
          "internalType": "string",
          "name": "tokenName",
          "type": "string"
        },
        {
          "internalType": "address",
          "name": "_address",
          "type": "address"
        }
      ],
      "name": "getBalance",
      "outputs": [
        {
          "internalType": "uint256",
          "name": "",
          "type": "uint256"
        }
      ],
      "stateMutability": "view",
      "type": "function"
    },
    {
      "inputs": [],
      "name": "getEthBalance",
      "outputs": [
        {
          "internalType": "uint256",
          "name": "",
          "type": "uint256"
        }
      ],
      "stateMutability": "view",
      "type": "function"
    },
    {
      "inputs": [
        {
          "internalType": "string",
          "name": "CoinA",
          "type": "string"
        },
        {
          "internalType": "string",
          "name": "CoinB",
          "type": "string"
        }
      ],
      "name": "getLiquidityPool",
      "outputs": [
        {
          "internalType": "address",
          "name": "",
          "type": "address"
        }
      ],
      "stateMutability": "view",
      "type": "function"
    },
    {
      "inputs": [
        {
          "internalType": "string",
          "name": "tokenName",
          "type": "string"
        }
      ],
      "name": "getName",
      "outputs": [
        {
          "internalType": "string",
          "name": "",
          "type": "string"
        }
      ],
      "stateMutability": "view",
      "type": "function"
    },
    {
      "inputs": [
        {
          "internalType": "string",
          "name": "CoinA",
          "type": "string"
        },
        {
          "internalType": "string",
          "name": "CoinB",
          "type": "string"
        }
      ],
      "name": "getReserves",
      "outputs": [
        {
          "internalType": "uint256",
          "name": "reserve1",
          "type": "uint256"
        },
        {
          "internalType": "uint256",
          "name": "reserve2",
          "type": "uint256"
        }
      ],
      "stateMutability": "view",
      "type": "function"
    },
    {
      "inputs": [
        {
          "internalType": "string",
          "name": "tokenName",
          "type": "string"
        }
      ],
      "name": "getTokenAddress",
      "outputs": [
        {
          "internalType": "address",
          "name": "",
          "type": "address"
        }
      ],
      "stateMutability": "view",
      "type": "function"
    },
    {
      "inputs": [
        {
          "internalType": "string",
          "name": "tokenName",
          "type": "string"
        }
      ],
      "name": "getTotalSupply",
      "outputs": [
        {
          "internalType": "uint256",
          "name": "",
          "type": "uint256"
        }
      ],
      "stateMutability": "view",
      "type": "function"
    },
    {
      "inputs": [
        {
          "internalType": "string",
          "name": "",
          "type": "string"
        },
        {
          "internalType": "string",
          "name": "",
          "type": "string"
        }
      ],
      "name": "liquidityPools",
      "outputs": [
        {
          "internalType": "address",
          "name": "",
          "type": "address"
        }
      ],
      "stateMutability": "view",
      "type": "function"
    },
    {
      "inputs": [
        {
          "internalType": "string",
          "name": "CoinA",
          "type": "string"
        },
        {
          "internalType": "string",
          "name": "CoinB",
          "type": "string"
        },
        {
          "internalType": "uint256",
          "name": "liquidity",
          "type": "uint256"
        }
      ],
      "name": "removeLiquidity",
      "outputs": [],
      "stateMutability": "nonpayable",
      "type": "function"
    },
    {
      "inputs": [
        {
          "internalType": "string",
          "name": "tokenName",
          "type": "string"
        }
      ],
      "name": "swapEthToToken",
      "outputs": [
        {
          "internalType": "uint256",
          "name": "",
          "type": "uint256"
        }
      ],
      "stateMutability": "payable",
      "type": "function"
    },
    {
      "inputs": [
        {
          "internalType": "string",
          "name": "tokenName",
          "type": "string"
        },
        {
          "internalType": "uint256",
          "name": "_amount",
          "type": "uint256"
        }
      ],
      "name": "swapTokenToEth",
      "outputs": [
        {
          "internalType": "uint256",
          "name": "",
          "type": "uint256"
        }
      ],
      "stateMutability": "nonpayable",
      "type": "function"
    },
    {
      "inputs": [
        {
          "internalType": "string",
          "name": "CoinA",
          "type": "string"
        },
        {
          "internalType": "string",
          "name": "CoinB",
          "type": "string"
        },
        {
          "internalType": "uint256",
          "name": "amountIn",
          "type": "uint256"
        }
      ],
      "name": "swapTokens",
      "outputs": [],
      "stateMutability": "nonpayable",
      "type": "function"
    },
    {
      "inputs": [
        {
          "internalType": "string",
          "name": "",
          "type": "string"
        }
      ],
      "name": "tokenInstanceMap",
      "outputs": [
        {
          "internalType": "contract ERC20",
          "name": "",
          "type": "address"
        }
      ],
      "stateMutability": "view",
      "type": "function"
    }
  ],
  "bytecode": "0x6080604052655af3107a40006002553480156200001b57600080fd5b506040516200002a90620004a9565b620000359062000526565b604051809103906000f08015801562000052573d6000803e3d6000fd5b50600160405162000063906200058f565b908152602001604051809103902060006101000a81548173ffffffffffffffffffffffffffffffffffffffff021916908373ffffffffffffffffffffffffffffffffffffffff160217905550604051620000bd90620004a9565b620000c890620005f6565b604051809103906000f080158015620000e5573d6000803e3d6000fd5b506001604051620000f69062000654565b908152602001604051809103902060006101000a81548173ffffffffffffffffffffffffffffffffffffffff021916908373ffffffffffffffffffffffffffffffffffffffff1602179055506040516200015090620004a9565b6200015b90620006bb565b604051809103906000f08015801562000178573d6000803e3d6000fd5b506001604051620001899062000719565b908152602001604051809103902060006101000a81548173ffffffffffffffffffffffffffffffffffffffff021916908373ffffffffffffffffffffffffffffffffffffffff160217905550620002576040518060400160405280600581526020017f436f696e410000000000000000000000000000000000000000000000000000008152506040518060400160405280600581526020017f436f696e420000000000000000000000000000000000000000000000000000008152506103e8611f406200036160201b60201c565b620002d96040518060400160405280600581526020017f436f696e420000000000000000000000000000000000000000000000000000008152506040518060400160405280600581526020017f436f696e430000000000000000000000000000000000000000000000000000008152506107d06113886200036160201b60201c565b6200035b6040518060400160405280600581526020017f436f696e410000000000000000000000000000000000000000000000000000008152506040518060400160405280600581526020017f436f696e43000000000000000000000000000000000000000000000000000000815250611388612af86200036160201b60201c565b62000992565b60008484670de0b6b3a7640000856200037b919062000769565b670de0b6b3a76400008562000391919062000769565b6040516200039f90620004b7565b620003ae94939291906200084e565b604051809103906000f080158015620003cb573d6000803e3d6000fd5b50905080600086604051620003e19190620008e0565b908152602001604051809103902085604051620003ff9190620008e0565b908152602001604051809103902060006101000a81548173ffffffffffffffffffffffffffffffffffffffff021916908373ffffffffffffffffffffffffffffffffffffffff160217905550846040516200045b9190620008e0565b60405180910390207fb6a2b5f533c7290ee31c92382be3961b239f04a6ee1ccde853485be971409dd1858386866040516200049a94939291906200093e565b60405180910390a25050505050565b611a9e8062003c9383390190565b6114a3806200573183390190565b600082825260208201905092915050565b7f436f696e41000000000000000000000000000000000000000000000000000000600082015250565b60006200050e600583620004c5565b91506200051b82620004d6565b602082019050919050565b600060408201905081810360008301526200054181620004ff565b905081810360208301526200055681620004ff565b9050919050565b600081905092915050565b6000620005776005836200055d565b91506200058482620004d6565b600582019050919050565b60006200059c8262000568565b9150819050919050565b7f436f696e42000000000000000000000000000000000000000000000000000000600082015250565b6000620005de600583620004c5565b9150620005eb82620005a6565b602082019050919050565b600060408201905081810360008301526200061181620005cf565b905081810360208301526200062681620005cf565b9050919050565b60006200063c6005836200055d565b91506200064982620005a6565b600582019050919050565b600062000661826200062d565b9150819050919050565b7f436f696e43000000000000000000000000000000000000000000000000000000600082015250565b6000620006a3600583620004c5565b9150620006b0826200066b565b602082019050919050565b60006040820190508181036000830152620006d68162000694565b90508181036020830152620006eb8162000694565b9050919050565b6000620007016005836200055d565b91506200070e826200066b565b600582019050919050565b60006200072682620006f2565b9150819050919050565b6000819050919050565b7f4e487b7100000000000000000000000000000000000000000000000000000000600052601160045260246000fd5b6000620007768262000730565b9150620007838362000730565b9250828202620007938162000730565b91508282048414831517620007ad57620007ac6200073a565b5b5092915050565b600081519050919050565b60005b83811015620007df578082015181840152602081019050620007c2565b60008484015250505050565b6000601f19601f8301169050919050565b60006200080982620007b4565b620008158185620004c5565b935062000827818560208601620007bf565b6200083281620007eb565b840191505092915050565b620008488162000730565b82525050565b600060808201905081810360008301526200086a8187620007fc565b90508181036020830152620008808186620007fc565b90506200089160408301856200083d565b620008a060608301846200083d565b95945050505050565b6000620008b682620007b4565b620008c281856200055d565b9350620008d4818560208601620007bf565b80840191505092915050565b6000620008ee8284620008a9565b915081905092915050565b600073ffffffffffffffffffffffffffffffffffffffff82169050919050565b60006200092682620008f9565b9050919050565b620009388162000919565b82525050565b600060808201905081810360008301526200095a8187620007fc565b90506200096b60208301866200092d565b6200097a60408301856200083d565b6200098960608301846200083d565b95945050505050565b6132f180620009a26000396000f3fe6080604052600436106100fe5760003560e01c8063973e9b8b11610095578063c45010ed11610064578063c45010ed14610374578063d8e96486146103b1578063db6f63ee146103ef578063e4641b741461042c578063efeaaeea14610469576100fe565b8063973e9b8b146102a4578063a8c9e831146102d1578063a93325ed146102fa578063c409123614610337576100fe565b806363fcf7c5116100d157806363fcf7c5146101cf5780636932cf81146101ff57806370ed0ada1461023c57806389f4b31714610267576100fe565b8063105df746146101035780634bee093b1461014057806352bc0d86146101695780635463109e14610192575b600080fd5b34801561010f57600080fd5b5061012a60048036038101906101259190612326565b6104a6565b60405161013791906123df565b60405180910390f35b34801561014c57600080fd5b5061016760048036038101906101629190612430565b61050a565b005b34801561017557600080fd5b50610190600480360381019061018b91906124bb565b610dc1565b005b34801561019e57600080fd5b506101b960048036038101906101b4919061255a565b61114f565b6040516101c691906125b2565b60405180910390f35b6101e960048036038101906101e4919061255a565b611205565b6040516101f691906125b2565b60405180910390f35b34801561020b57600080fd5b506102266004803603810190610221919061255a565b6112ff565b604051610233919061264c565b60405180910390f35b34801561024857600080fd5b506102516113ba565b60405161025e91906125b2565b60405180910390f35b34801561027357600080fd5b5061028e6004803603810190610289919061269a565b6113c2565b60405161029b91906125b2565b60405180910390f35b3480156102b057600080fd5b506102b9611484565b6040516102c8939291906126f6565b60405180910390f35b3480156102dd57600080fd5b506102f860048036038101906102f39190612430565b6116bc565b005b34801561030657600080fd5b50610321600480360381019061031c919061255a565b611abd565b60405161032e919061278c565b60405180910390f35b34801561034357600080fd5b5061035e6004803603810190610359919061255a565b611b06565b60405161036b91906123df565b60405180910390f35b34801561038057600080fd5b5061039b60048036038101906103969190612430565b611b4e565b6040516103a891906125b2565b60405180910390f35b3480156103bd57600080fd5b506103d860048036038101906103d39190612326565b611ce7565b6040516103e69291906127a7565b60405180910390f35b3480156103fb57600080fd5b50610416600480360381019061041191906127d0565b611e3e565b60405161042391906125b2565b60405180910390f35b34801561043857600080fd5b50610453600480360381019061044e9190612430565b611fc5565b60405161046091906125b2565b60405180910390f35b34801561047557600080fd5b50610490600480360381019061048b9190612326565b61215e565b60405161049d91906123df565b60405180910390f35b600080836040516104b79190612868565b9081526020016040518091039020826040516104d39190612868565b908152602001604051809103902060009054906101000a900473ffffffffffffffffffffffffffffffffffffffff16905092915050565b6000811161054d576040517f08c379a0000000000000000000000000000000000000000000000000000000008152600401610544906128cb565b60405180910390fd5b6000808460405161055e9190612868565b90815260200160405180910390208360405161057a9190612868565b908152602001604051809103902060009054906101000a900473ffffffffffffffffffffffffffffffffffffffff169050600080846040516105bc9190612868565b9081526020016040518091039020856040516105d89190612868565b908152602001604051809103902060009054906101000a900473ffffffffffffffffffffffffffffffffffffffff169050600073ffffffffffffffffffffffffffffffffffffffff168273ffffffffffffffffffffffffffffffffffffffff161415806106725750600073ffffffffffffffffffffffffffffffffffffffff168173ffffffffffffffffffffffffffffffffffffffff1614155b6106b1576040517f08c379a00000000000000000000000000000000000000000000000000000000081526004016106a890612937565b60405180910390fd5b60008073ffffffffffffffffffffffffffffffffffffffff168373ffffffffffffffffffffffffffffffffffffffff1614610a1a578273ffffffffffffffffffffffffffffffffffffffff1663e4641b748787876040518463ffffffff1660e01b815260040161072393929190612957565b602060405180830381865afa158015610740573d6000803e3d6000fd5b505050506040513d601f19601f8201168201806040525081019061076491906129b1565b9050600081116107a9576040517f08c379a00000000000000000000000000000000000000000000000000000000081526004016107a090612a50565b60405180910390fd5b6001866040516107b99190612868565b908152602001604051809103902060009054906101000a900473ffffffffffffffffffffffffffffffffffffffff1673ffffffffffffffffffffffffffffffffffffffff166323b872dd3385876040518463ffffffff1660e01b815260040161082493929190612a70565b6020604051808303816000875af1158015610843573d6000803e3d6000fd5b505050506040513d601f19601f820116820180604052508101906108679190612adf565b6108a6576040517f08c379a000000000000000000000000000000000000000000000000000000000815260040161089d90612b58565b60405180910390fd5b6001856040516108b69190612868565b908152602001604051809103902060009054906101000a900473ffffffffffffffffffffffffffffffffffffffff1673ffffffffffffffffffffffffffffffffffffffff1663a9059cbb33836040518363ffffffff1660e01b815260040161091f929190612b78565b6020604051808303816000875af115801561093e573d6000803e3d6000fd5b505050506040513d601f19601f820116820180604052508101906109629190612adf565b6109a1576040517f08c379a000000000000000000000000000000000000000000000000000000000815260040161099890612b58565b60405180910390fd5b8273ffffffffffffffffffffffffffffffffffffffff1663a5890f2b8787878560006040518663ffffffff1660e01b81526004016109e3959493929190612bdc565b600060405180830381600087803b1580156109fd57600080fd5b505af1158015610a11573d6000803e3d6000fd5b50505050610db9565b600073ffffffffffffffffffffffffffffffffffffffff168273ffffffffffffffffffffffffffffffffffffffff1603610a89576040517f08c379a0000000000000000000000000000000000000000000000000000000008152600401610a8090612caf565b60405180910390fd5b8173ffffffffffffffffffffffffffffffffffffffff1663c45010ed8688876040518463ffffffff1660e01b8152600401610ac693929190612957565b602060405180830381865afa158015610ae3573d6000803e3d6000fd5b505050506040513d601f19601f82011682018060405250810190610b0791906129b1565b905060008111610b4c576040517f08c379a0000000000000000000000000000000000000000000000000000000008152600401610b4390612a50565b60405180910390fd5b600186604051610b5c9190612868565b908152602001604051809103902060009054906101000a900473ffffffffffffffffffffffffffffffffffffffff1673ffffffffffffffffffffffffffffffffffffffff166323b872dd3384876040518463ffffffff1660e01b8152600401610bc793929190612a70565b6020604051808303816000875af1158015610be6573d6000803e3d6000fd5b505050506040513d601f19601f82011682018060405250810190610c0a9190612adf565b610c49576040517f08c379a0000000000000000000000000000000000000000000000000000000008152600401610c4090612b58565b60405180910390fd5b600185604051610c599190612868565b908152602001604051809103902060009054906101000a900473ffffffffffffffffffffffffffffffffffffffff1673ffffffffffffffffffffffffffffffffffffffff1663a9059cbb33836040518363ffffffff1660e01b8152600401610cc2929190612b78565b6020604051808303816000875af1158015610ce1573d6000803e3d6000fd5b505050506040513d601f19601f82011682018060405250810190610d059190612adf565b610d44576040517f08c379a0000000000000000000000000000000000000000000000000000000008152600401610d3b90612b58565b60405180910390fd5b8173ffffffffffffffffffffffffffffffffffffffff1663a5890f2b8688878560016040518663ffffffff1660e01b8152600401610d86959493929190612d0a565b600060405180830381600087803b158015610da057600080fd5b505af1158015610db4573d6000803e3d6000fd5b505050505b505050505050565b600082118015610dd15750600081115b610e10576040517f08c379a0000000000000000000000000000000000000000000000000000000008152600401610e07906128cb565b60405180910390fd5b60008085604051610e219190612868565b908152602001604051809103902084604051610e3d9190612868565b908152602001604051809103902060009054906101000a900473ffffffffffffffffffffffffffffffffffffffff169050600073ffffffffffffffffffffffffffffffffffffffff168173ffffffffffffffffffffffffffffffffffffffff1603610edd576040517f08c379a0000000000000000000000000000000000000000000000000000000008152600401610ed490612937565b60405180910390fd5b600185604051610eed9190612868565b908152602001604051809103902060009054906101000a900473ffffffffffffffffffffffffffffffffffffffff1673ffffffffffffffffffffffffffffffffffffffff166323b872dd3330866040518463ffffffff1660e01b8152600401610f5893929190612a70565b6020604051808303816000875af1158015610f77573d6000803e3d6000fd5b505050506040513d601f19601f82011682018060405250810190610f9b9190612adf565b610fda576040517f08c379a0000000000000000000000000000000000000000000000000000000008152600401610fd190612db7565b60405180910390fd5b600184604051610fea9190612868565b908152602001604051809103902060009054906101000a900473ffffffffffffffffffffffffffffffffffffffff1673ffffffffffffffffffffffffffffffffffffffff166323b872dd3330856040518463ffffffff1660e01b815260040161105593929190612a70565b6020604051808303816000875af1158015611074573d6000803e3d6000fd5b505050506040513d601f19601f820116820180604052508101906110989190612adf565b6110d7576040517f08c379a00000000000000000000000000000000000000000000000000000000081526004016110ce90612e23565b60405180910390fd5b8073ffffffffffffffffffffffffffffffffffffffff166352bc0d86868686866040518563ffffffff1660e01b81526004016111169493929190612e43565b600060405180830381600087803b15801561113057600080fd5b505af1158015611144573d6000803e3d6000fd5b505050505050505050565b60006001826040516111619190612868565b908152602001604051809103902060009054906101000a900473ffffffffffffffffffffffffffffffffffffffff1673ffffffffffffffffffffffffffffffffffffffff166318160ddd6040518163ffffffff1660e01b8152600401602060405180830381865afa1580156111da573d6000803e3d6000fd5b505050506040513d601f19601f820116820180604052508101906111fe91906129b1565b9050919050565b6000803490506000670de0b6b3a7640000600254836112249190612ef4565b61122e9190612f25565b90506001846040516112409190612868565b908152602001604051809103902060009054906101000a900473ffffffffffffffffffffffffffffffffffffffff1673ffffffffffffffffffffffffffffffffffffffff1663a9059cbb33836040518363ffffffff1660e01b81526004016112a9929190612b78565b6020604051808303816000875af11580156112c8573d6000803e3d6000fd5b505050506040513d601f19601f820116820180604052508101906112ec9190612adf565b6112f557600080fd5b8092505050919050565b60606001826040516113119190612868565b908152602001604051809103902060009054906101000a900473ffffffffffffffffffffffffffffffffffffffff1673ffffffffffffffffffffffffffffffffffffffff166306fdde036040518163ffffffff1660e01b8152600401600060405180830381865afa15801561138a573d6000803e3d6000fd5b505050506040513d6000823e3d601f19601f820116820180604052508101906113b39190612fd7565b9050919050565b600047905090565b60006001836040516113d49190612868565b908152602001604051809103902060009054906101000a900473ffffffffffffffffffffffffffffffffffffffff1673ffffffffffffffffffffffffffffffffffffffff166370a08231836040518263ffffffff1660e01b815260040161143b91906123df565b602060405180830381865afa158015611458573d6000803e3d6000fd5b505050506040513d601f19601f8201168201806040525081019061147c91906129b1565b905092915050565b600080600060016040516114979061306c565b908152602001604051809103902060009054906101000a900473ffffffffffffffffffffffffffffffffffffffff1673ffffffffffffffffffffffffffffffffffffffff1663dd62ed3e33306040518363ffffffff1660e01b8152600401611500929190613081565b602060405180830381865afa15801561151d573d6000803e3d6000fd5b505050506040513d601f19601f8201168201806040525081019061154191906129b1565b92506001604051611551906130f6565b908152602001604051809103902060009054906101000a900473ffffffffffffffffffffffffffffffffffffffff1673ffffffffffffffffffffffffffffffffffffffff1663dd62ed3e33306040518363ffffffff1660e01b81526004016115ba929190613081565b602060405180830381865afa1580156115d7573d6000803e3d6000fd5b505050506040513d601f19601f820116820180604052508101906115fb91906129b1565b9150600160405161160b90613157565b908152602001604051809103902060009054906101000a900473ffffffffffffffffffffffffffffffffffffffff1673ffffffffffffffffffffffffffffffffffffffff1663dd62ed3e33306040518363ffffffff1660e01b8152600401611674929190613081565b602060405180830381865afa158015611691573d6000803e3d6000fd5b505050506040513d601f19601f820116820180604052508101906116b591906129b1565b9050909192565b600081116116ff576040517f08c379a00000000000000000000000000000000000000000000000000000000081526004016116f6906131b8565b60405180910390fd5b600080846040516117109190612868565b90815260200160405180910390208360405161172c9190612868565b908152602001604051809103902060009054906101000a900473ffffffffffffffffffffffffffffffffffffffff169050600073ffffffffffffffffffffffffffffffffffffffff168173ffffffffffffffffffffffffffffffffffffffff16036117cc576040517f08c379a00000000000000000000000000000000000000000000000000000000081526004016117c390612937565b60405180910390fd5b6000808273ffffffffffffffffffffffffffffffffffffffff16638b9f471c8787876040518463ffffffff1660e01b815260040161180c93929190612957565b6040805180830381865afa158015611828573d6000803e3d6000fd5b505050506040513d601f19601f8201168201806040525081019061184c91906131d8565b915091506001866040516118609190612868565b908152602001604051809103902060009054906101000a900473ffffffffffffffffffffffffffffffffffffffff1673ffffffffffffffffffffffffffffffffffffffff1663a9059cbb33846040518363ffffffff1660e01b81526004016118c9929190612b78565b6020604051808303816000875af11580156118e8573d6000803e3d6000fd5b505050506040513d601f19601f8201168201806040525081019061190c9190612adf565b61194b576040517f08c379a000000000000000000000000000000000000000000000000000000000815260040161194290612db7565b60405180910390fd5b60018560405161195b9190612868565b908152602001604051809103902060009054906101000a900473ffffffffffffffffffffffffffffffffffffffff1673ffffffffffffffffffffffffffffffffffffffff1663a9059cbb33836040518363ffffffff1660e01b81526004016119c4929190612b78565b6020604051808303816000875af11580156119e3573d6000803e3d6000fd5b505050506040513d601f19601f82011682018060405250810190611a079190612adf565b611a46576040517f08c379a0000000000000000000000000000000000000000000000000000000008152600401611a3d90612e23565b60405180910390fd5b8273ffffffffffffffffffffffffffffffffffffffff1663a8c9e8318787876040518463ffffffff1660e01b8152600401611a8393929190612957565b600060405180830381600087803b158015611a9d57600080fd5b505af1158015611ab1573d6000803e3d6000fd5b50505050505050505050565b6001818051602081018201805184825260208301602085012081835280955050505050506000915054906101000a900473ffffffffffffffffffffffffffffffffffffffff1681565b6000600182604051611b189190612868565b908152602001604051809103902060009054906101000a900473ffffffffffffffffffffffffffffffffffffffff169050919050565b6000808211611b92576040517f08c379a0000000000000000000000000000000000000000000000000000000008152600401611b89906128cb565b60405180910390fd5b60008085604051611ba39190612868565b908152602001604051809103902084604051611bbf9190612868565b908152602001604051809103902060009054906101000a900473ffffffffffffffffffffffffffffffffffffffff169050600073ffffffffffffffffffffffffffffffffffffffff168173ffffffffffffffffffffffffffffffffffffffff1603611c5f576040517f08c379a0000000000000000000000000000000000000000000000000000000008152600401611c5690612937565b60405180910390fd5b8073ffffffffffffffffffffffffffffffffffffffff1663c45010ed8686866040518463ffffffff1660e01b8152600401611c9c93929190612957565b602060405180830381865afa158015611cb9573d6000803e3d6000fd5b505050506040513d601f19601f82011682018060405250810190611cdd91906129b1565b9150509392505050565b60008060008085604051611cfb9190612868565b908152602001604051809103902084604051611d179190612868565b908152602001604051809103902060009054906101000a900473ffffffffffffffffffffffffffffffffffffffff169050600073ffffffffffffffffffffffffffffffffffffffff168173ffffffffffffffffffffffffffffffffffffffff1603611db7576040517f08c379a0000000000000000000000000000000000000000000000000000000008152600401611dae90612937565b60405180910390fd5b8073ffffffffffffffffffffffffffffffffffffffff1663d8e9648686866040518363ffffffff1660e01b8152600401611df2929190613218565b6040805180830381865afa158015611e0e573d6000803e3d6000fd5b505050506040513d601f19601f82011682018060405250810190611e3291906131d8565b92509250509250929050565b600080670de0b6b3a764000083611e559190612ef4565b9050600060025482611e679190612f25565b905080471015611eac576040517f08c379a0000000000000000000000000000000000000000000000000000000008152600401611ea39061329b565b60405180910390fd5b3373ffffffffffffffffffffffffffffffffffffffff166108fc829081150290604051600060405180830381858888f19350505050158015611ef2573d6000803e3d6000fd5b50600185604051611f039190612868565b908152602001604051809103902060009054906101000a900473ffffffffffffffffffffffffffffffffffffffff1673ffffffffffffffffffffffffffffffffffffffff166323b872dd3330876040518463ffffffff1660e01b8152600401611f6e93929190612a70565b6020604051808303816000875af1158015611f8d573d6000803e3d6000fd5b505050506040513d601f19601f82011682018060405250810190611fb19190612adf565b611fba57600080fd5b809250505092915050565b6000808211612009576040517f08c379a0000000000000000000000000000000000000000000000000000000008152600401612000906128cb565b60405180910390fd5b6000808560405161201a9190612868565b9081526020016040518091039020846040516120369190612868565b908152602001604051809103902060009054906101000a900473ffffffffffffffffffffffffffffffffffffffff169050600073ffffffffffffffffffffffffffffffffffffffff168173ffffffffffffffffffffffffffffffffffffffff16036120d6576040517f08c379a00000000000000000000000000000000000000000000000000000000081526004016120cd90612937565b60405180910390fd5b8073ffffffffffffffffffffffffffffffffffffffff1663e4641b748686866040518463ffffffff1660e01b815260040161211393929190612957565b602060405180830381865afa158015612130573d6000803e3d6000fd5b505050506040513d601f19601f8201168201806040525081019061215491906129b1565b9150509392505050565b600082805160208101820180518482526020830160208501208183528095505050505050818051602081018201805184825260208301602085012081835280955050505050506000915091509054906101000a900473ffffffffffffffffffffffffffffffffffffffff1681565b6000604051905090565b600080fd5b600080fd5b600080fd5b600080fd5b6000601f19601f8301169050919050565b7f4e487b7100000000000000000000000000000000000000000000000000000000600052604160045260246000fd5b612233826121ea565b810181811067ffffffffffffffff82111715612252576122516121fb565b5b80604052505050565b60006122656121cc565b9050612271828261222a565b919050565b600067ffffffffffffffff821115612291576122906121fb565b5b61229a826121ea565b9050602081019050919050565b82818337600083830152505050565b60006122c96122c484612276565b61225b565b9050828152602081018484840111156122e5576122e46121e5565b5b6122f08482856122a7565b509392505050565b600082601f83011261230d5761230c6121e0565b5b813561231d8482602086016122b6565b91505092915050565b6000806040838503121561233d5761233c6121d6565b5b600083013567ffffffffffffffff81111561235b5761235a6121db565b5b612367858286016122f8565b925050602083013567ffffffffffffffff811115612388576123876121db565b5b612394858286016122f8565b9150509250929050565b600073ffffffffffffffffffffffffffffffffffffffff82169050919050565b60006123c98261239e565b9050919050565b6123d9816123be565b82525050565b60006020820190506123f460008301846123d0565b92915050565b6000819050919050565b61240d816123fa565b811461241857600080fd5b50565b60008135905061242a81612404565b92915050565b600080600060608486031215612449576124486121d6565b5b600084013567ffffffffffffffff811115612467576124666121db565b5b612473868287016122f8565b935050602084013567ffffffffffffffff811115612494576124936121db565b5b6124a0868287016122f8565b92505060406124b18682870161241b565b9150509250925092565b600080600080608085870312156124d5576124d46121d6565b5b600085013567ffffffffffffffff8111156124f3576124f26121db565b5b6124ff878288016122f8565b945050602085013567ffffffffffffffff8111156125205761251f6121db565b5b61252c878288016122f8565b935050604061253d8782880161241b565b925050606061254e8782880161241b565b91505092959194509250565b6000602082840312156125705761256f6121d6565b5b600082013567ffffffffffffffff81111561258e5761258d6121db565b5b61259a848285016122f8565b91505092915050565b6125ac816123fa565b82525050565b60006020820190506125c760008301846125a3565b92915050565b600081519050919050565b600082825260208201905092915050565b60005b838110156126075780820151818401526020810190506125ec565b60008484015250505050565b600061261e826125cd565b61262881856125d8565b93506126388185602086016125e9565b612641816121ea565b840191505092915050565b600060208201905081810360008301526126668184612613565b905092915050565b612677816123be565b811461268257600080fd5b50565b6000813590506126948161266e565b92915050565b600080604083850312156126b1576126b06121d6565b5b600083013567ffffffffffffffff8111156126cf576126ce6121db565b5b6126db858286016122f8565b92505060206126ec85828601612685565b9150509250929050565b600060608201905061270b60008301866125a3565b61271860208301856125a3565b61272560408301846125a3565b949350505050565b6000819050919050565b600061275261274d6127488461239e565b61272d565b61239e565b9050919050565b600061276482612737565b9050919050565b600061277682612759565b9050919050565b6127868161276b565b82525050565b60006020820190506127a1600083018461277d565b92915050565b60006040820190506127bc60008301856125a3565b6127c960208301846125a3565b9392505050565b600080604083850312156127e7576127e66121d6565b5b600083013567ffffffffffffffff811115612805576128046121db565b5b612811858286016122f8565b92505060206128228582860161241b565b9150509250929050565b600081905092915050565b6000612842826125cd565b61284c818561282c565b935061285c8185602086016125e9565b80840191505092915050565b60006128748284612837565b915081905092915050565b7f416d6f756e74206d7573742062652067726561746572207468616e2030000000600082015250565b60006128b5601d836125d8565b91506128c08261287f565b602082019050919050565b600060208201905081810360008301526128e4816128a8565b9050919050565b7f4c697175696469747920706f6f6c20646f6573206e6f74206578697374000000600082015250565b6000612921601d836125d8565b915061292c826128eb565b602082019050919050565b6000602082019050818103600083015261295081612914565b9050919050565b600060608201905081810360008301526129718186612613565b905081810360208301526129858185612613565b905061299460408301846125a3565b949350505050565b6000815190506129ab81612404565b92915050565b6000602082840312156129c7576129c66121d6565b5b60006129d58482850161299c565b91505092915050565b7f496e73756666696369656e74206c697175696469747920666f7220746865207360008201527f7761700000000000000000000000000000000000000000000000000000000000602082015250565b6000612a3a6023836125d8565b9150612a45826129de565b604082019050919050565b60006020820190508181036000830152612a6981612a2d565b9050919050565b6000606082019050612a8560008301866123d0565b612a9260208301856123d0565b612a9f60408301846125a3565b949350505050565b60008115159050919050565b612abc81612aa7565b8114612ac757600080fd5b50565b600081519050612ad981612ab3565b92915050565b600060208284031215612af557612af46121d6565b5b6000612b0384828501612aca565b91505092915050565b7f5472616e73666572206661696c65640000000000000000000000000000000000600082015250565b6000612b42600f836125d8565b9150612b4d82612b0c565b602082019050919050565b60006020820190508181036000830152612b7181612b35565b9050919050565b6000604082019050612b8d60008301856123d0565b612b9a60208301846125a3565b9392505050565b6000819050919050565b6000612bc6612bc1612bbc84612ba1565b61272d565b6123fa565b9050919050565b612bd681612bab565b82525050565b600060a0820190508181036000830152612bf68188612613565b90508181036020830152612c0a8187612613565b9050612c1960408301866125a3565b612c2660608301856125a3565b612c336080830184612bcd565b9695505050505050565b7f52657665727365206c697175696469747920706f6f6c20646f6573206e6f742060008201527f6578697374000000000000000000000000000000000000000000000000000000602082015250565b6000612c996025836125d8565b9150612ca482612c3d565b604082019050919050565b60006020820190508181036000830152612cc881612c8c565b9050919050565b6000819050919050565b6000612cf4612cef612cea84612ccf565b61272d565b6123fa565b9050919050565b612d0481612cd9565b82525050565b600060a0820190508181036000830152612d248188612613565b90508181036020830152612d388187612613565b9050612d4760408301866125a3565b612d5460608301856125a3565b612d616080830184612cfb565b9695505050505050565b7f5472616e73666572206f6620436f696e41206661696c65640000000000000000600082015250565b6000612da16018836125d8565b9150612dac82612d6b565b602082019050919050565b60006020820190508181036000830152612dd081612d94565b9050919050565b7f5472616e73666572206f6620436f696e42206661696c65640000000000000000600082015250565b6000612e0d6018836125d8565b9150612e1882612dd7565b602082019050919050565b60006020820190508181036000830152612e3c81612e00565b9050919050565b60006080820190508181036000830152612e5d8187612613565b90508181036020830152612e718186612613565b9050612e8060408301856125a3565b612e8d60608301846125a3565b95945050505050565b7f4e487b7100000000000000000000000000000000000000000000000000000000600052601260045260246000fd5b7f4e487b7100000000000000000000000000000000000000000000000000000000600052601160045260246000fd5b6000612eff826123fa565b9150612f0a836123fa565b925082612f1a57612f19612e96565b5b828204905092915050565b6000612f30826123fa565b9150612f3b836123fa565b9250828202612f49816123fa565b91508282048414831517612f6057612f5f612ec5565b5b5092915050565b6000612f7a612f7584612276565b61225b565b905082815260208101848484011115612f9657612f956121e5565b5b612fa18482856125e9565b509392505050565b600082601f830112612fbe57612fbd6121e0565b5b8151612fce848260208601612f67565b91505092915050565b600060208284031215612fed57612fec6121d6565b5b600082015167ffffffffffffffff81111561300b5761300a6121db565b5b61301784828501612fa9565b91505092915050565b7f436f696e41000000000000000000000000000000000000000000000000000000600082015250565b600061305660058361282c565b915061306182613020565b600582019050919050565b600061307782613049565b9150819050919050565b600060408201905061309660008301856123d0565b6130a360208301846123d0565b9392505050565b7f436f696e42000000000000000000000000000000000000000000000000000000600082015250565b60006130e060058361282c565b91506130eb826130aa565b600582019050919050565b6000613101826130d3565b9150819050919050565b7f436f696e43000000000000000000000000000000000000000000000000000000600082015250565b600061314160058361282c565b915061314c8261310b565b600582019050919050565b600061316282613134565b9150819050919050565b7f4c6971756964697479206d7573742062652067726561746572207468616e2030600082015250565b60006131a26020836125d8565b91506131ad8261316c565b602082019050919050565b600060208201905081810360008301526131d181613195565b9050919050565b600080604083850312156131ef576131ee6121d6565b5b60006131fd8582860161299c565b925050602061320e8582860161299c565b9150509250929050565b600060408201905081810360008301526132328185612613565b905081810360208301526132468184612613565b90509392505050565b7f4465782069732072756e6e696e67206c6f77206f6e2062616c616e63652e0000600082015250565b6000613285601e836125d8565b91506132908261324f565b602082019050919050565b600060208201905081810360008301526132b481613278565b905091905056fea26469706673582212207aec102ef7e57fb8ee2d05de20bbdc291874f0edfd2903b0612ad97da299641364736f6c6343000812003360806040523480156200001157600080fd5b5060405162001a9e38038062001a9e83398181016040528101906200003791906200038d565b818181600390816200004a91906200065d565b5080600490816200005c91906200065d565b5050506200007b3369152d02c7e14af68000006200008360201b60201c565b50506200085f565b600073ffffffffffffffffffffffffffffffffffffffff168273ffffffffffffffffffffffffffffffffffffffff1603620000f5576040517f08c379a0000000000000000000000000000000000000000000000000000000008152600401620000ec90620007a5565b60405180910390fd5b6200010960008383620001f060201b60201c565b80600260008282546200011d9190620007f6565b92505081905550806000808473ffffffffffffffffffffffffffffffffffffffff1673ffffffffffffffffffffffffffffffffffffffff168152602001908152602001600020600082825401925050819055508173ffffffffffffffffffffffffffffffffffffffff16600073ffffffffffffffffffffffffffffffffffffffff167fddf252ad1be2c89b69c2b068fc378daa952ba7f163c4a11628f55a4df523b3ef83604051620001d0919062000842565b60405180910390a3620001ec60008383620001f560201b60201c565b5050565b505050565b505050565b6000604051905090565b600080fd5b600080fd5b600080fd5b600080fd5b6000601f19601f8301169050919050565b7f4e487b7100000000000000000000000000000000000000000000000000000000600052604160045260246000fd5b620002638262000218565b810181811067ffffffffffffffff8211171562000285576200028462000229565b5b80604052505050565b60006200029a620001fa565b9050620002a8828262000258565b919050565b600067ffffffffffffffff821115620002cb57620002ca62000229565b5b620002d68262000218565b9050602081019050919050565b60005b8381101562000303578082015181840152602081019050620002e6565b60008484015250505050565b6000620003266200032084620002ad565b6200028e565b90508281526020810184848401111562000345576200034462000213565b5b62000352848285620002e3565b509392505050565b600082601f8301126200037257620003716200020e565b5b8151620003848482602086016200030f565b91505092915050565b60008060408385031215620003a757620003a662000204565b5b600083015167ffffffffffffffff811115620003c857620003c762000209565b5b620003d6858286016200035a565b925050602083015167ffffffffffffffff811115620003fa57620003f962000209565b5b62000408858286016200035a565b9150509250929050565b600081519050919050565b7f4e487b7100000000000000000000000000000000000000000000000000000000600052602260045260246000fd5b600060028204905060018216806200046557607f821691505b6020821081036200047b576200047a6200041d565b5b50919050565b60008190508160005260206000209050919050565b60006020601f8301049050919050565b600082821b905092915050565b600060088302620004e57fffffffffffffffffffffffffffffffffffffffffffffffffffffffffffffffff82620004a6565b620004f18683620004a6565b95508019841693508086168417925050509392505050565b6000819050919050565b6000819050919050565b60006200053e62000538620005328462000509565b62000513565b62000509565b9050919050565b6000819050919050565b6200055a836200051d565b62000572620005698262000545565b848454620004b3565b825550505050565b600090565b620005896200057a565b620005968184846200054f565b505050565b5b81811015620005be57620005b26000826200057f565b6001810190506200059c565b5050565b601f8211156200060d57620005d78162000481565b620005e28462000496565b81016020851015620005f2578190505b6200060a620006018562000496565b8301826200059b565b50505b505050565b600082821c905092915050565b6000620006326000198460080262000612565b1980831691505092915050565b60006200064d83836200061f565b9150826002028217905092915050565b620006688262000412565b67ffffffffffffffff81111562000684576200068362000229565b5b6200069082546200044c565b6200069d828285620005c2565b600060209050601f831160018114620006d55760008415620006c0578287015190505b620006cc85826200063f565b8655506200073c565b601f198416620006e58662000481565b60005b828110156200070f57848901518255600182019150602085019450602081019050620006e8565b868310156200072f57848901516200072b601f8916826200061f565b8355505b6001600288020188555050505b505050505050565b600082825260208201905092915050565b7f45524332303a206d696e7420746f20746865207a65726f206164647265737300600082015250565b60006200078d601f8362000744565b91506200079a8262000755565b602082019050919050565b60006020820190508181036000830152620007c0816200077e565b9050919050565b7f4e487b7100000000000000000000000000000000000000000000000000000000600052601160045260246000fd5b6000620008038262000509565b9150620008108362000509565b92508282019050808211156200082b576200082a620007c7565b5b92915050565b6200083c8162000509565b82525050565b600060208201905062000859600083018462000831565b92915050565b61122f806200086f6000396000f3fe608060405234801561001057600080fd5b50600436106100a95760003560e01c80633950935111610071578063395093511461016857806370a082311461019857806395d89b41146101c8578063a457c2d7146101e6578063a9059cbb14610216578063dd62ed3e14610246576100a9565b806306fdde03146100ae578063095ea7b3146100cc57806318160ddd146100fc57806323b872dd1461011a578063313ce5671461014a575b600080fd5b6100b6610276565b6040516100c39190610b0c565b60405180910390f35b6100e660048036038101906100e19190610bc7565b610308565b6040516100f39190610c22565b60405180910390f35b61010461032b565b6040516101119190610c4c565b60405180910390f35b610134600480360381019061012f9190610c67565b610335565b6040516101419190610c22565b60405180910390f35b610152610364565b60405161015f9190610cd6565b60405180910390f35b610182600480360381019061017d9190610bc7565b61036d565b60405161018f9190610c22565b60405180910390f35b6101b260048036038101906101ad9190610cf1565b6103a4565b6040516101bf9190610c4c565b60405180910390f35b6101d06103ec565b6040516101dd9190610b0c565b60405180910390f35b61020060048036038101906101fb9190610bc7565b61047e565b60405161020d9190610c22565b60405180910390f35b610230600480360381019061022b9190610bc7565b6104f5565b60405161023d9190610c22565b60405180910390f35b610260600480360381019061025b9190610d1e565b610518565b60405161026d9190610c4c565b60405180910390f35b60606003805461028590610d8d565b80601f01602080910402602001604051908101604052809291908181526020018280546102b190610d8d565b80156102fe5780601f106102d3576101008083540402835291602001916102fe565b820191906000526020600020905b8154815290600101906020018083116102e157829003601f168201915b5050505050905090565b60008061031361059f565b90506103208185856105a7565b600191505092915050565b6000600254905090565b60008061034061059f565b905061034d858285610770565b6103588585856107fc565b60019150509392505050565b60006012905090565b60008061037861059f565b905061039981858561038a8589610518565b6103949190610ded565b6105a7565b600191505092915050565b60008060008373ffffffffffffffffffffffffffffffffffffffff1673ffffffffffffffffffffffffffffffffffffffff168152602001908152602001600020549050919050565b6060600480546103fb90610d8d565b80601f016020809104026020016040519081016040528092919081815260200182805461042790610d8d565b80156104745780601f1061044957610100808354040283529160200191610474565b820191906000526020600020905b81548152906001019060200180831161045757829003601f168201915b5050505050905090565b60008061048961059f565b905060006104978286610518565b9050838110156104dc576040517f08c379a00000000000000000000000000000000000000000000000000000000081526004016104d390610e93565b60405180910390fd5b6104e982868684036105a7565b60019250505092915050565b60008061050061059f565b905061050d8185856107fc565b600191505092915050565b6000600160008473ffffffffffffffffffffffffffffffffffffffff1673ffffffffffffffffffffffffffffffffffffffff16815260200190815260200160002060008373ffffffffffffffffffffffffffffffffffffffff1673ffffffffffffffffffffffffffffffffffffffff16815260200190815260200160002054905092915050565b600033905090565b600073ffffffffffffffffffffffffffffffffffffffff168373ffffffffffffffffffffffffffffffffffffffff1603610616576040517f08c379a000000000000000000000000000000000000000000000000000000000815260040161060d90610f25565b60405180910390fd5b600073ffffffffffffffffffffffffffffffffffffffff168273ffffffffffffffffffffffffffffffffffffffff1603610685576040517f08c379a000000000000000000000000000000000000000000000000000000000815260040161067c90610fb7565b60405180910390fd5b80600160008573ffffffffffffffffffffffffffffffffffffffff1673ffffffffffffffffffffffffffffffffffffffff16815260200190815260200160002060008473ffffffffffffffffffffffffffffffffffffffff1673ffffffffffffffffffffffffffffffffffffffff168152602001908152602001600020819055508173ffffffffffffffffffffffffffffffffffffffff168373ffffffffffffffffffffffffffffffffffffffff167f8c5be1e5ebec7d5bd14f71427d1e84f3dd0314c0f7b2291e5b200ac8c7c3b925836040516107639190610c4c565b60405180910390a3505050565b600061077c8484610518565b90507fffffffffffffffffffffffffffffffffffffffffffffffffffffffffffffffff81146107f657818110156107e8576040517f08c379a00000000000000000000000000000000000000000000000000000000081526004016107df90611023565b60405180910390fd5b6107f584848484036105a7565b5b50505050565b600073ffffffffffffffffffffffffffffffffffffffff168373ffffffffffffffffffffffffffffffffffffffff160361086b576040517f08c379a0000000000000000000000000000000000000000000000000000000008152600401610862906110b5565b60405180910390fd5b600073ffffffffffffffffffffffffffffffffffffffff168273ffffffffffffffffffffffffffffffffffffffff16036108da576040517f08c379a00000000000000000000000000000000000000000000000000000000081526004016108d190611147565b60405180910390fd5b6108e5838383610a72565b60008060008573ffffffffffffffffffffffffffffffffffffffff1673ffffffffffffffffffffffffffffffffffffffff1681526020019081526020016000205490508181101561096b576040517f08c379a0000000000000000000000000000000000000000000000000000000008152600401610962906111d9565b60405180910390fd5b8181036000808673ffffffffffffffffffffffffffffffffffffffff1673ffffffffffffffffffffffffffffffffffffffff16815260200190815260200160002081905550816000808573ffffffffffffffffffffffffffffffffffffffff1673ffffffffffffffffffffffffffffffffffffffff168152602001908152602001600020600082825401925050819055508273ffffffffffffffffffffffffffffffffffffffff168473ffffffffffffffffffffffffffffffffffffffff167fddf252ad1be2c89b69c2b068fc378daa952ba7f163c4a11628f55a4df523b3ef84604051610a599190610c4c565b60405180910390a3610a6c848484610a77565b50505050565b505050565b505050565b600081519050919050565b600082825260208201905092915050565b60005b83811015610ab6578082015181840152602081019050610a9b565b60008484015250505050565b6000601f19601f8301169050919050565b6000610ade82610a7c565b610ae88185610a87565b9350610af8818560208601610a98565b610b0181610ac2565b840191505092915050565b60006020820190508181036000830152610b268184610ad3565b905092915050565b600080fd5b600073ffffffffffffffffffffffffffffffffffffffff82169050919050565b6000610b5e82610b33565b9050919050565b610b6e81610b53565b8114610b7957600080fd5b50565b600081359050610b8b81610b65565b92915050565b6000819050919050565b610ba481610b91565b8114610baf57600080fd5b50565b600081359050610bc181610b9b565b92915050565b60008060408385031215610bde57610bdd610b2e565b5b6000610bec85828601610b7c565b9250506020610bfd85828601610bb2565b9150509250929050565b60008115159050919050565b610c1c81610c07565b82525050565b6000602082019050610c376000830184610c13565b92915050565b610c4681610b91565b82525050565b6000602082019050610c616000830184610c3d565b92915050565b600080600060608486031215610c8057610c7f610b2e565b5b6000610c8e86828701610b7c565b9350506020610c9f86828701610b7c565b9250506040610cb086828701610bb2565b9150509250925092565b600060ff82169050919050565b610cd081610cba565b82525050565b6000602082019050610ceb6000830184610cc7565b92915050565b600060208284031215610d0757610d06610b2e565b5b6000610d1584828501610b7c565b91505092915050565b60008060408385031215610d3557610d34610b2e565b5b6000610d4385828601610b7c565b9250506020610d5485828601610b7c565b9150509250929050565b7f4e487b7100000000000000000000000000000000000000000000000000000000600052602260045260246000fd5b60006002820490506001821680610da557607f821691505b602082108103610db857610db7610d5e565b5b50919050565b7f4e487b7100000000000000000000000000000000000000000000000000000000600052601160045260246000fd5b6000610df882610b91565b9150610e0383610b91565b9250828201905080821115610e1b57610e1a610dbe565b5b92915050565b7f45524332303a2064656372656173656420616c6c6f77616e63652062656c6f7760008201527f207a65726f000000000000000000000000000000000000000000000000000000602082015250565b6000610e7d602583610a87565b9150610e8882610e21565b604082019050919050565b60006020820190508181036000830152610eac81610e70565b9050919050565b7f45524332303a20617070726f76652066726f6d20746865207a65726f2061646460008201527f7265737300000000000000000000000000000000000000000000000000000000602082015250565b6000610f0f602483610a87565b9150610f1a82610eb3565b604082019050919050565b60006020820190508181036000830152610f3e81610f02565b9050919050565b7f45524332303a20617070726f766520746f20746865207a65726f20616464726560008201527f7373000000000000000000000000000000000000000000000000000000000000602082015250565b6000610fa1602283610a87565b9150610fac82610f45565b604082019050919050565b60006020820190508181036000830152610fd081610f94565b9050919050565b7f45524332303a20696e73756666696369656e7420616c6c6f77616e6365000000600082015250565b600061100d601d83610a87565b915061101882610fd7565b602082019050919050565b6000602082019050818103600083015261103c81611000565b9050919050565b7f45524332303a207472616e736665722066726f6d20746865207a65726f20616460008201527f6472657373000000000000000000000000000000000000000000000000000000602082015250565b600061109f602583610a87565b91506110aa82611043565b604082019050919050565b600060208201905081810360008301526110ce81611092565b9050919050565b7f45524332303a207472616e7366657220746f20746865207a65726f206164647260008201527f6573730000000000000000000000000000000000000000000000000000000000602082015250565b6000611131602383610a87565b915061113c826110d5565b604082019050919050565b6000602082019050818103600083015261116081611124565b9050919050565b7f45524332303a207472616e7366657220616d6f756e742065786365656473206260008201527f616c616e63650000000000000000000000000000000000000000000000000000602082015250565b60006111c3602683610a87565b91506111ce82611167565b604082019050919050565b600060208201905081810360008301526111f2816111b6565b905091905056fea2646970667358221220ac102a5928d3018fcc18d091b36f67a4aaef90b7a49f01b99c9c1c101bd420aa64736f6c6343000812003360806040523480156200001157600080fd5b50604051620014a3380380620014a3833981810160405281019062000037919062000279565b6040518060400160405280838152602001828152506000856040516200005e919062000376565b9081526020016040518091039020846040516200007c919062000376565b90815260200160405180910390206000820151816000015560208201518160010155905050505050506200038f565b6000604051905090565b600080fd5b600080fd5b600080fd5b600080fd5b6000601f19601f8301169050919050565b7f4e487b7100000000000000000000000000000000000000000000000000000000600052604160045260246000fd5b6200011482620000c9565b810181811067ffffffffffffffff82111715620001365762000135620000da565b5b80604052505050565b60006200014b620000ab565b905062000159828262000109565b919050565b600067ffffffffffffffff8211156200017c576200017b620000da565b5b6200018782620000c9565b9050602081019050919050565b60005b83811015620001b457808201518184015260208101905062000197565b60008484015250505050565b6000620001d7620001d1846200015e565b6200013f565b905082815260208101848484011115620001f657620001f5620000c4565b5b6200020384828562000194565b509392505050565b600082601f830112620002235762000222620000bf565b5b815162000235848260208601620001c0565b91505092915050565b6000819050919050565b62000253816200023e565b81146200025f57600080fd5b50565b600081519050620002738162000248565b92915050565b60008060008060808587031215620002965762000295620000b5565b5b600085015167ffffffffffffffff811115620002b757620002b6620000ba565b5b620002c5878288016200020b565b945050602085015167ffffffffffffffff811115620002e957620002e8620000ba565b5b620002f7878288016200020b565b93505060406200030a8782880162000262565b92505060606200031d8782880162000262565b91505092959194509250565b600081519050919050565b600081905092915050565b60006200034c8262000329565b62000358818562000334565b93506200036a81856020860162000194565b80840191505092915050565b60006200038482846200033f565b915081905092915050565b611104806200039f6000396000f3fe608060405234801561001057600080fd5b50600436106100885760003560e01c8063a8c9e8311161005b578063a8c9e83114610127578063c45010ed14610143578063d8e9648614610173578063e4641b74146101a457610088565b806352bc0d861461008d5780637373366d146100a95780638b9f471c146100da578063a5890f2b1461010b575b600080fd5b6100a760048036038101906100a29190610a84565b6101d4565b005b6100c360048036038101906100be9190610b23565b610367565b6040516100d1929190610baa565b60405180910390f35b6100f460048036038101906100ef9190610bd3565b6103c4565b604051610102929190610baa565b60405180910390f35b61012560048036038101906101209190610c5e565b61046d565b005b610141600480360381019061013c9190610bd3565b6105d4565b005b61015d60048036038101906101589190610bd3565b61074a565b60405161016a9190610d11565b60405180910390f35b61018d60048036038101906101889190610b23565b6107f4565b60405161019b929190610baa565b60405180910390f35b6101be60048036038101906101b99190610bd3565b61084a565b6040516101cb9190610d11565b60405180910390f35b6000821180156101e45750600081115b610223576040517f08c379a000000000000000000000000000000000000000000000000000000000815260040161021a90610d89565b60405180910390fd5b600080856040516102349190610e1a565b9081526020016040518091039020846040516102509190610e1a565b90815260200160405180910390209050600061026d86868661084a565b905060008483600001546102819190610e60565b905060008284600101546102959190610e60565b90508084600001546102a79190610e94565b8460010154836102b79190610e94565b146102f7576040517f08c379a00000000000000000000000000000000000000000000000000000000081526004016102ee90610f22565b60405180910390fd5b8184600001819055508084600101819055503373ffffffffffffffffffffffffffffffffffffffff167fe533c07a27a13a478e68c9a6c2d74ef79ccfe11c36eea8f72391582a4017b5c1898989876040516103559493929190610f7b565b60405180910390a25050505050505050565b60008280516020810182018051848252602083016020850120818352809550505050505081805160208101820180518482526020830160208501208183528095505050505050600091509150508060000154908060010154905082565b600080600080866040516103d89190610e1a565b9081526020016040518091039020856040516103f49190610e1a565b90815260200160405180910390209050806001015481600001546104189190610e60565b8160000154856104289190610e94565b6104329190610ffd565b9250806001015481600001546104489190610e60565b8160010154856104589190610e94565b6104629190610ffd565b915050935093915050565b6000808660405161047e9190610e1a565b90815260200160405180910390208560405161049a9190610e1a565b908152602001604051809103902090506001820361054157828160000160008282546104c6919061102e565b92505081905550838160010160008282546104e19190610e60565b925050819055503373ffffffffffffffffffffffffffffffffffffffff167fcd9c9799c652885dff44ea1d302db36aebd8e947d8d0a364f51681d8ed5b2d9c868886886040516105349493929190610f7b565b60405180910390a26105cc565b838160000160008282546105559190610e60565b9250508190555082816001016000828254610570919061102e565b925050819055503373ffffffffffffffffffffffffffffffffffffffff167fcd9c9799c652885dff44ea1d302db36aebd8e947d8d0a364f51681d8ed5b2d9c878787876040516105c39493929190610f7b565b60405180910390a25b505050505050565b60008111610617576040517f08c379a000000000000000000000000000000000000000000000000000000000815260040161060e906110ae565b60405180910390fd5b600080846040516106289190610e1a565b9081526020016040518091039020836040516106449190610e1a565b9081526020016040518091039020905060008160010154826000015461066a9190610e60565b82600001548461067a9190610e94565b6106849190610ffd565b905060008260010154836000015461069c9190610e60565b8360010154856106ac9190610e94565b6106b69190610ffd565b9050818360000160008282546106cc919061102e565b92505081905550808360010160008282546106e7919061102e565b925050819055503373ffffffffffffffffffffffffffffffffffffffff167f14fd703fc150e7fe9e776413882feecdbfb3bbbff26ef76dba3e64b941b2f3868787858560405161073a9493929190610f7b565b60405180910390a2505050505050565b600080821161078e576040517f08c379a000000000000000000000000000000000000000000000000000000000815260040161078590610d89565b60405180910390fd5b6000808560405161079f9190610e1a565b9081526020016040518091039020846040516107bb9190610e1a565b9081526020016040518091039020905080600101548382600001546107e09190610e94565b6107ea9190610ffd565b9150509392505050565b600080600080856040516108089190610e1a565b9081526020016040518091039020846040516108249190610e1a565b908152602001604051809103902090508060000154816001015492509250509250929050565b600080821161088e576040517f08c379a000000000000000000000000000000000000000000000000000000000815260040161088590610d89565b60405180910390fd5b6000808560405161089f9190610e1a565b9081526020016040518091039020846040516108bb9190610e1a565b9081526020016040518091039020905080600001548382600101546108e09190610e94565b6108ea9190610ffd565b9150509392505050565b6000604051905090565b600080fd5b600080fd5b600080fd5b600080fd5b6000601f19601f8301169050919050565b7f4e487b7100000000000000000000000000000000000000000000000000000000600052604160045260246000fd5b61095b82610912565b810181811067ffffffffffffffff8211171561097a57610979610923565b5b80604052505050565b600061098d6108f4565b90506109998282610952565b919050565b600067ffffffffffffffff8211156109b9576109b8610923565b5b6109c282610912565b9050602081019050919050565b82818337600083830152505050565b60006109f16109ec8461099e565b610983565b905082815260208101848484011115610a0d57610a0c61090d565b5b610a188482856109cf565b509392505050565b600082601f830112610a3557610a34610908565b5b8135610a458482602086016109de565b91505092915050565b6000819050919050565b610a6181610a4e565b8114610a6c57600080fd5b50565b600081359050610a7e81610a58565b92915050565b60008060008060808587031215610a9e57610a9d6108fe565b5b600085013567ffffffffffffffff811115610abc57610abb610903565b5b610ac887828801610a20565b945050602085013567ffffffffffffffff811115610ae957610ae8610903565b5b610af587828801610a20565b9350506040610b0687828801610a6f565b9250506060610b1787828801610a6f565b91505092959194509250565b60008060408385031215610b3a57610b396108fe565b5b600083013567ffffffffffffffff811115610b5857610b57610903565b5b610b6485828601610a20565b925050602083013567ffffffffffffffff811115610b8557610b84610903565b5b610b9185828601610a20565b9150509250929050565b610ba481610a4e565b82525050565b6000604082019050610bbf6000830185610b9b565b610bcc6020830184610b9b565b9392505050565b600080600060608486031215610bec57610beb6108fe565b5b600084013567ffffffffffffffff811115610c0a57610c09610903565b5b610c1686828701610a20565b935050602084013567ffffffffffffffff811115610c3757610c36610903565b5b610c4386828701610a20565b9250506040610c5486828701610a6f565b9150509250925092565b600080600080600060a08688031215610c7a57610c796108fe565b5b600086013567ffffffffffffffff811115610c9857610c97610903565b5b610ca488828901610a20565b955050602086013567ffffffffffffffff811115610cc557610cc4610903565b5b610cd188828901610a20565b9450506040610ce288828901610a6f565b9350506060610cf388828901610a6f565b9250506080610d0488828901610a6f565b9150509295509295909350565b6000602082019050610d266000830184610b9b565b92915050565b600082825260208201905092915050565b7f416d6f756e74206d7573742062652067726561746572207468616e2030000000600082015250565b6000610d73601d83610d2c565b9150610d7e82610d3d565b602082019050919050565b60006020820190508181036000830152610da281610d66565b9050919050565b600081519050919050565b600081905092915050565b60005b83811015610ddd578082015181840152602081019050610dc2565b60008484015250505050565b6000610df482610da9565b610dfe8185610db4565b9350610e0e818560208601610dbf565b80840191505092915050565b6000610e268284610de9565b915081905092915050565b7f4e487b7100000000000000000000000000000000000000000000000000000000600052601160045260246000fd5b6000610e6b82610a4e565b9150610e7683610a4e565b9250828201905080821115610e8e57610e8d610e31565b5b92915050565b6000610e9f82610a4e565b9150610eaa83610a4e565b9250828202610eb881610a4e565b91508282048414831517610ecf57610ece610e31565b5b5092915050565b7f4c6971756964697479206d757374206d61696e7461696e20726174696f000000600082015250565b6000610f0c601d83610d2c565b9150610f1782610ed6565b602082019050919050565b60006020820190508181036000830152610f3b81610eff565b9050919050565b6000610f4d82610da9565b610f578185610d2c565b9350610f67818560208601610dbf565b610f7081610912565b840191505092915050565b60006080820190508181036000830152610f958187610f42565b90508181036020830152610fa98186610f42565b9050610fb86040830185610b9b565b610fc56060830184610b9b565b95945050505050565b7f4e487b7100000000000000000000000000000000000000000000000000000000600052601260045260246000fd5b600061100882610a4e565b915061101383610a4e565b92508261102357611022610fce565b5b828204905092915050565b600061103982610a4e565b915061104483610a4e565b925082820390508181111561105c5761105b610e31565b5b92915050565b7f4c6971756964697479206d7573742062652067726561746572207468616e2030600082015250565b6000611098602083610d2c565b91506110a382611062565b602082019050919050565b600060208201905081810360008301526110c78161108b565b905091905056fea26469706673582212200e39076c17f7eaff83f376358216819caddb71746b528aef241681f34bb4c46864736f6c63430008120033",
  "linkReferences": {},
  "deployedLinkReferences": {}
}